{
  "contractName": "add",
  "abi": [
    {
      "constant": true,
      "inputs": [
        {
          "name": "a",
          "type": "uint256"
        },
        {
          "name": "b",
          "type": "uint256"
        }
      ],
      "name": "addnumber",
      "outputs": [
        {
          "name": "",
          "type": "uint256"
        },
        {
          "name": "",
          "type": "uint256"
        }
      ],
      "payable": false,
      "stateMutability": "pure",
      "type": "function"
    }
  ],
  "bytecode": "0x608060405234801561001057600080fd5b5060de8061001f6000396000f300608060405260043610603f576000357c0100000000000000000000000000000000000000000000000000000000900463ffffffff16806393edfd1f146044575b600080fd5b348015604f57600080fd5b50607660048036038101908080359060200190929190803590602001909291905050506093565b604051808381526020018281526020019250505060405180910390f35b60008060008084860191508486029050818193509350505092509290505600a165627a7a723058200f2ecb52fd10c956cd7c6277f989d7ea68a20c0cc836bb30fe1b5361cdf6476b0029",
  "source": "pragma solidity ^0.4.0;\n\ncontract add{\n    \n    function addnumber(uint a, uint b) public pure returns(uint,uint){\n        uint number1= a+b;\n        uint number2= a*b;\n        return (number1,number2);\n    }\n\n}\n",
  "sourcePath": "D:\\Affair2018\\小学期\\应用\\drugtracer\\contracts\\testadd.sol",
  "compiler": {
    "name": "solc",
    "version": "0.4.24+commit.e67f0147.Emscripten.clang"
  },
  "schemaVersion": "2.0.1",
  "updatedAt": "2018-09-04T15:04:07.711Z"
}