{
  "contractName": "add",
  "abi": [
    {
      "constant": false,
      "inputs": [
        {
          "name": "drugCode",
          "type": "string"
        },
        {
          "name": "drug",
          "type": "string"
        }
      ],
      "name": "setProduce",
      "outputs": [
        {
          "name": "",
          "type": "bool"
        }
      ],
      "payable": false,
      "stateMutability": "nonpayable",
      "type": "function"
    },
    {
      "constant": true,
      "inputs": [
        {
          "name": "code",
          "type": "string"
        }
      ],
      "name": "get1",
      "outputs": [
        {
          "components": [
            {
              "name": "drug",
              "type": "string"
            },
            {
              "name": "isValid",
              "type": "bool"
            }
          ],
          "name": "",
          "type": "tuple"
        }
      ],
      "payable": false,
      "stateMutability": "view",
      "type": "function"
    },
    {
      "constant": true,
      "inputs": [
        {
          "name": "code",
          "type": "string"
        }
      ],
      "name": "get",
      "outputs": [
        {
          "name": "",
          "type": "string"
        },
        {
          "name": "",
          "type": "bool"
        }
      ],
      "payable": false,
      "stateMutability": "view",
      "type": "function"
    }
  ],
  "bytecode": "0x608060405234801561001057600080fd5b506108e7806100206000396000f300608060405260043610610057576000357c0100000000000000000000000000000000000000000000000000000000900463ffffffff168063055629271461005c5780632ed8353514610099578063693ec85e146100d6575b600080fd5b34801561006857600080fd5b50610083600480360361007e919081019061064e565b610114565b6040516100909190610772565b60405180910390f35b3480156100a557600080fd5b506100c060048036036100bb919081019061060d565b610281565b6040516100cd91906107bd565b60405180910390f35b3480156100e257600080fd5b506100fd60048036036100f8919081019061060d565b6103c8565b60405161010b92919061078d565b60405180910390f35b600061011e6104f6565b6040805190810160405280848152602001600115158152509050600015156000856040518082805190602001908083835b602083101515610174578051825260208201915060208101905060208303925061014f565b6001836020036101000a038019825116818451168082178552505050505050905001915050908152602001604051809103902060010160009054906101000a900460ff161515141561027557806000856040518082805190602001908083835b6020831015156101f957805182526020820191506020810190506020830392506101d4565b6001836020036101000a03801982511681845116808217855250505050505090500191505090815260200160405180910390206000820151816000019080519060200190610248929190610512565b5060208201518160010160006101000a81548160ff0219169083151502179055509050506001915061027a565b600091505b5092915050565b6102896104f6565b600080836040518082805190602001908083835b6020831015156102c2578051825260208201915060208101905060208303925061029d565b6001836020036101000a0380198251168184511680821785525050505050509050019150509081526020016040518091039020905080604080519081016040529081600082018054600181600116156101000203166002900480601f01602080910402602001604051908101604052809291908181526020018280546001816001161561010002031660029004801561039c5780601f106103715761010080835404028352916020019161039c565b820191906000526020600020905b81548152906001019060200180831161037f57829003601f168201915b505050505081526020016001820160009054906101000a900460ff161515151581525050915050919050565b60606000806000846040518082805190602001908083835b60208310151561040557805182526020820191506020810190506020830392506103e0565b6001836020036101000a03801982511681845116808217855250505050505090500191505090815260200160405180910390209050806000018160010160009054906101000a900460ff16818054600181600116156101000203166002900480601f0160208091040260200160405190810160405280929190818152602001828054600181600116156101000203166002900480156104e55780601f106104ba576101008083540402835291602001916104e5565b820191906000526020600020905b8154815290600101906020018083116104c857829003601f168201915b505050505091509250925050915091565b6040805190810160405280606081526020016000151581525090565b828054600181600116156101000203166002900490600052602060002090601f016020900481019282601f1061055357805160ff1916838001178555610581565b82800160010185558215610581579182015b82811115610580578251825591602001919060010190610565565b5b50905061058e9190610592565b5090565b6105b491905b808211156105b0576000816000905550600101610598565b5090565b90565b600082601f83011215156105ca57600080fd5b81356105dd6105d88261080c565b6107df565b915080825260208301602083018583830111156105f957600080fd5b61060483828461085a565b50505092915050565b60006020828403121561061f57600080fd5b600082013567ffffffffffffffff81111561063957600080fd5b610645848285016105b7565b91505092915050565b6000806040838503121561066157600080fd5b600083013567ffffffffffffffff81111561067b57600080fd5b610687858286016105b7565b925050602083013567ffffffffffffffff8111156106a457600080fd5b6106b0858286016105b7565b9150509250929050565b6106c38161084e565b82525050565b60006106d482610843565b8084526106e8816020860160208601610869565b6106f18161089c565b602085010191505092915050565b600061070a82610838565b80845261071e816020860160208601610869565b6107278161089c565b602085010191505092915050565b6000604083016000830151848203600086015261075282826106ff565b915050602083015161076760208601826106ba565b508091505092915050565b600060208201905061078760008301846106ba565b92915050565b600060408201905081810360008301526107a781856106c9565b90506107b660208301846106ba565b9392505050565b600060208201905081810360008301526107d78184610735565b905092915050565b6000604051905081810181811067ffffffffffffffff8211171561080257600080fd5b8060405250919050565b600067ffffffffffffffff82111561082357600080fd5b601f19601f8301169050602081019050919050565b600081519050919050565b600081519050919050565b60008115159050919050565b82818337600083830152505050565b60005b8381101561088757808201518184015260208101905061086c565b83811115610896576000848401525b50505050565b6000601f19601f83011690509190505600a265627a7a72305820d9f391d587dc16a547a75440de7cfff03dd44349182491ad33ebb5c746bd416d6c6578706572696d656e74616cf50037",
  "source": "pragma solidity ^0.4.24;\r\npragma experimental ABIEncoderV2;\r\nimport \"../strings.sol\";\r\ncontract add{\r\n    //using strings for *;\r\n    struct ProduceDetail {\r\n        string  drug;           //药品名称\r\n   //出厂日期\r\n        bool    isValid;\r\n    }\r\n    //ProduceDetail detail;\r\n    \r\n    //出厂信息映射\r\n    mapping (string => ProduceDetail) produceList;\r\n    \r\n    function setProduce (\r\n                        string  drugCode,\r\n                        string  drug)\r\n                        public returns (bool) {\r\n        //code = drugCode;\r\n        ProduceDetail memory drugInfo = ProduceDetail(drug ,true);\r\n        if (produceList[drugCode].isValid == false) {\r\n            produceList[drugCode] = drugInfo;\r\n            return true;\r\n        }\r\n        else {\r\n            return false;\r\n        }\r\n    }\r\n    function get1(string code) public view returns(ProduceDetail)\r\n    {\r\n        ProduceDetail detail = produceList[code];\r\n        return detail;\r\n    }\r\n    function get(string code) public view returns(string,bool){\r\n        ProduceDetail detail = produceList[code];\r\n        return (detail.drug,detail.isValid);\r\n    }\r\n}",
  "sourcePath": "C:\\Users\\10848\\Desktop\\solidity\\drugtracer\\contracts\\testadd.sol",
  "compiler": {
    "name": "solc",
    "version": "0.4.24+commit.e67f0147.Emscripten.clang"
  },
  "schemaVersion": "2.0.1",
  "updatedAt": "2018-09-06T11:53:10.181Z"
}