{
  "contractName": "add",
  "abi": [
    {
      "constant": true,
      "inputs": [
        {
          "name": "a",
          "type": "uint256"
        },
        {
          "name": "b",
          "type": "uint256"
        }
      ],
      "name": "addnumber",
      "outputs": [
        {
          "name": "",
          "type": "uint256"
        },
        {
          "name": "",
          "type": "uint256"
        }
      ],
      "payable": false,
      "stateMutability": "pure",
      "type": "function"
    }
  ],
  "bytecode": "0x608060405234801561001057600080fd5b5060de8061001f6000396000f300608060405260043610603f576000357c0100000000000000000000000000000000000000000000000000000000900463ffffffff16806393edfd1f146044575b600080fd5b348015604f57600080fd5b50607660048036038101908080359060200190929190803590602001909291905050506093565b604051808381526020018281526020019250505060405180910390f35b60008060008084860191508486029050818193509350505092509290505600a165627a7a7230582008b67de0e6ecf229d2dd6a5c98abf043b6d75b502aaf69266f3503ca0fa6cf350029",
  "source": "pragma solidity ^0.4.0;\r\n\r\ncontract add{\r\n    \r\n    function addnumber(uint a, uint b) public pure returns(uint,uint){\r\n        uint number1= a+b;\r\n        uint number2= a*b;\r\n        return (number1,number2);\r\n    }\r\n\r\n}\r\n",
  "sourcePath": "C:\\Users\\10848\\Desktop\\solidity\\drugtracer\\contracts\\testadd.sol",
  "compiler": {
    "name": "solc",
    "version": "0.4.24+commit.e67f0147.Emscripten.clang"
  },
  "schemaVersion": "2.0.1",
  "updatedAt": "2018-09-04T17:42:03.874Z"
}