{
  "contractName": "CallTest",
  "abi": [
    {
      "constant": true,
      "inputs": [],
      "name": "array",
      "outputs": [
        {
          "name": "",
          "type": "string[10]"
        }
      ],
      "payable": false,
      "stateMutability": "view",
      "type": "function"
    }
  ],
  "bytecode": "0x608060405234801561001057600080fd5b50610494806100206000396000f300608060405260043610610041576000357c0100000000000000000000000000000000000000000000000000000000900463ffffffff168063b0ec2ae114610046575b600080fd5b34801561005257600080fd5b5061005b610071565b60405161006891906103c7565b60405180910390f35b61007961025e565b6040805190810160405280600381526020017f3132330000000000000000000000000000000000000000000000000000000000815250600080600a811015156100be57fe5b0190805190602001906100d2929190610287565b506040805190810160405280600581526020017f323333333300000000000000000000000000000000000000000000000000000081525060006001600a8110151561011957fe5b01908051906020019061012d929190610287565b506040805190810160405280600481526020017f343434340000000000000000000000000000000000000000000000000000000081525060006003600a8110151561017457fe5b019080519060200190610188929190610287565b506000600a80602002604051908101604052809291906000905b82821015610255578382018054600181600116156101000203166002900480601f0160208091040260200160405190810160405280929190818152602001828054600181600116156101000203166002900480156102415780601f1061021657610100808354040283529160200191610241565b820191906000526020600020905b81548152906001019060200180831161022457829003601f168201915b5050505050815260200190600101906101a2565b50505050905090565b61014060405190810160405280600a905b606081526020019060019003908161026f5790505090565b828054600181600116156101000203166002900490600052602060002090601f016020900481019282601f106102c857805160ff19168380011785556102f6565b828001600101855582156102f6579182015b828111156102f55782518255916020019190600101906102da565b5b5090506103039190610307565b5090565b61032991905b8082111561032557600081600090555060010161030d565b5090565b90565b6000610337826103f3565b83602082028501610347856103e9565b60005b84811015610380578383038852610362838351610391565b925061036d82610409565b915060208801975060018101905061034a565b508196508694505050505092915050565b600061039c826103fe565b8084526103b0816020860160208601610416565b6103b981610449565b602085010191505092915050565b600060208201905081810360008301526103e1818461032c565b905092915050565b6000819050919050565b6000600a9050919050565b600081519050919050565b6000602082019050919050565b60005b83811015610434578082015181840152602081019050610419565b83811115610443576000848401525b50505050565b6000601f19601f83011690509190505600a265627a7a7230582098e58bef2ebbc1f5527898ff287fcb0486a04d0fd805c469e957eabce87b997e6c6578706572696d656e74616cf50037",
  "source": "pragma solidity ^0.4.20;\r\npragma experimental ABIEncoderV2;\r\ncontract CallTest{\r\n    string[10] b ;\r\n    function array()  constant public returns(string[10]){\r\n       // b.push(\"12345678\");\r\n       // b.push(\"0x123\");\r\n       // b.push(\"12345678\");\r\n       // b.push(\"123456\");\r\n        b[0] = \"123\";\r\n        b[1] = \"23333\";\r\n        b[3] = \"4444\";\r\n        return b;\r\n    }\r\n\r\n}\r\n",
  "sourcePath": "C:\\Users\\10848\\Desktop\\solidity\\drugtracer\\contracts\\CallTest.sol",
  "compiler": {
    "name": "solc",
    "version": "0.4.24+commit.e67f0147.Emscripten.clang"
  },
  "schemaVersion": "2.0.1",
  "updatedAt": "2018-09-04T17:42:03.874Z"
}