{
  "contractName": "CallTest",
  "abi": [
    {
      "constant": true,
      "inputs": [],
      "name": "array123",
      "outputs": [
        {
          "name": "",
          "type": "string[]"
        }
      ],
      "payable": false,
      "stateMutability": "view",
      "type": "function"
    }
  ],
  "bytecode": "0x608060405234801561001057600080fd5b50610453806100206000396000f300608060405260043610610041576000357c0100000000000000000000000000000000000000000000000000000000900463ffffffff1680638eca578514610046575b600080fd5b34801561005257600080fd5b5061005b610071565b6040516100689190610383565b60405180910390f35b606060008060018154018082558091505090600182039060005260206000200160006040805190810160405280600681526020017f3132333132330000000000000000000000000000000000000000000000000000815250909190915090805190602001906100e192919061023a565b505060008060018154018082558091505090600182039060005260206000200160006040805190810160405280600381526020017f34353600000000000000000000000000000000000000000000000000000000008152509091909150908051906020019061015192919061023a565b50506000805480602002602001604051908101604052809291908181526020016000905b82821015610231578382906000526020600020018054600181600116156101000203166002900480601f01602080910402602001604051908101604052809291908181526020018280546001816001161561010002031660029004801561021d5780601f106101f25761010080835404028352916020019161021d565b820191906000526020600020905b81548152906001019060200180831161020057829003601f168201915b505050505081526020019060010190610175565b50505050905090565b828054600181600116156101000203166002900490600052602060002090601f016020900481019282601f1061027b57805160ff19168380011785556102a9565b828001600101855582156102a9579182015b828111156102a857825182559160200191906001019061028d565b5b5090506102b691906102ba565b5090565b6102dc91905b808211156102d85760008160009055506001016102c0565b5090565b90565b60006102ea826103b2565b80845260208401935083602082028501610303856103a5565b60005b8481101561033c57838303885261031e83835161034d565b9250610329826103c8565b9150602088019750600181019050610306565b508196508694505050505092915050565b6000610358826103bd565b80845261036c8160208601602086016103d5565b61037581610408565b602085010191505092915050565b6000602082019050818103600083015261039d81846102df565b905092915050565b6000602082019050919050565b600081519050919050565b600081519050919050565b6000602082019050919050565b60005b838110156103f35780820151818401526020810190506103d8565b83811115610402576000848401525b50505050565b6000601f19601f83011690509190505600a265627a7a723058207bb4f6edf1f2848851c9a059fc125c6dc1ace68ce0e03cf02484152abea4fb786c6578706572696d656e74616cf50037",
  "source": "pragma solidity ^0.4.0;\r\npragma experimental ABIEncoderV2;\r\ncontract CallTest{\r\n    string[] b ;\r\n    function array123()  constant public returns(string[]){\r\n\r\n\r\n        b.push(\"123123\");\r\n        b.push(\"456\");\r\n        return b;\r\n    }\r\n}\r\n",
  "sourcePath": "C:\\Users\\10848\\Desktop\\solidity\\drugtracer\\contracts\\CallTest.sol",
  "compiler": {
    "name": "solc",
    "version": "0.4.24+commit.e67f0147.Emscripten.clang"
  },
  "schemaVersion": "2.0.1",
  "updatedAt": "2018-09-04T03:19:50.084Z"
}