{
  "contractName": "CallTest",
  "abi": [
    {
      "constant": false,
      "inputs": [
        {
          "name": "s1",
          "type": "string"
        },
        {
          "name": "s2",
          "type": "string"
        }
      ],
      "name": "foo",
      "outputs": [
        {
          "name": "",
          "type": "string"
        }
      ],
      "payable": false,
      "stateMutability": "nonpayable",
      "type": "function"
    }
  ],
  "bytecode": "0x608060405234801561001057600080fd5b50610526806100206000396000f300608060405260043610610041576000357c0100000000000000000000000000000000000000000000000000000000900463ffffffff168063124a83fa14610046575b600080fd5b34801561005257600080fd5b5061006d60048036036100689190810190610371565b610083565b60405161007a9190610413565b60405180910390f35b60606100a861009183610161565b61009a85610161565b61018f90919063ffffffff16565b600090805190602001906100bd92919061025c565b5060008054600181600116156101000203166002900480601f0160208091040260200160405190810160405280929190818152602001828054600181600116156101000203166002900480156101545780601f1061012957610100808354040283529160200191610154565b820191906000526020600020905b81548152906001019060200180831161013757829003601f168201915b5050505050905092915050565b6101696102dc565b600060208301905060408051908101604052808451815260200182815250915050919050565b606080600083600001518560000151016040519080825280601f01601f1916602001820160405280156101d15781602001602082028038833980820191505090505b5091506020820190506101ed8186602001518760000151610211565b6102068560000151820185602001518660000151610211565b819250505092915050565b60005b6020821015156102395782518452602084019350602083019250602082039150610214565b6001826020036101000a0390508019835116818551168181178652505050505050565b828054600181600116156101000203166002900490600052602060002090601f016020900481019282601f1061029d57805160ff19168380011785556102cb565b828001600101855582156102cb579182015b828111156102ca5782518255916020019190600101906102af565b5b5090506102d891906102f6565b5090565b604080519081016040528060008152602001600081525090565b61031891905b808211156103145760008160009055506001016102fc565b5090565b90565b600082601f830112151561032e57600080fd5b813561034161033c82610462565b610435565b9150808252602083016020830185838301111561035d57600080fd5b610368838284610499565b50505092915050565b6000806040838503121561038457600080fd5b600083013567ffffffffffffffff81111561039e57600080fd5b6103aa8582860161031b565b925050602083013567ffffffffffffffff8111156103c757600080fd5b6103d38582860161031b565b9150509250929050565b60006103e88261048e565b8084526103fc8160208601602086016104a8565b610405816104db565b602085010191505092915050565b6000602082019050818103600083015261042d81846103dd565b905092915050565b6000604051905081810181811067ffffffffffffffff8211171561045857600080fd5b8060405250919050565b600067ffffffffffffffff82111561047957600080fd5b601f19601f8301169050602081019050919050565b600081519050919050565b82818337600083830152505050565b60005b838110156104c65780820151818401526020810190506104ab565b838111156104d5576000848401525b50505050565b6000601f19601f83011690509190505600a265627a7a723058200369798ea5862b38418507b0dcb0f7360f5ab852f00cf383391d5078f6e4293f6c6578706572696d656e74616cf50037",
  "source": "pragma solidity ^0.4.0;\r\npragma experimental ABIEncoderV2;\r\nimport \"../strings.sol\";\r\n\r\ncontract CallTest {\r\n    using strings for *;\r\n    string s; \r\n    function foo (string s1, string s2) public returns(string){\r\n        s = s1.toSlice().concat(s2.toSlice());\r\n        return s;\r\n    }\r\n}\r\n",
  "sourcePath": "C:\\Users\\10848\\Desktop\\solidity\\drugtracer\\contracts\\CallTest.sol",
  "compiler": {
    "name": "solc",
    "version": "0.4.24+commit.e67f0147.Emscripten.clang"
  },
  "schemaVersion": "2.0.1",
  "updatedAt": "2018-09-06T01:46:01.273Z"
}