{
  "contractName": "CallTest",
  "abi": [
    {
      "constant": true,
      "inputs": [
        {
          "name": "s1",
          "type": "string"
        },
        {
          "name": "s2",
          "type": "string"
        }
      ],
      "name": "foo",
      "outputs": [
        {
          "name": "",
          "type": "string"
        }
      ],
      "payable": false,
      "stateMutability": "view",
      "type": "function"
    }
  ],
  "bytecode": "0x608060405234801561001057600080fd5b506103d5806100206000396000f300608060405260043610610041576000357c0100000000000000000000000000000000000000000000000000000000900463ffffffff168063124a83fa14610046575b600080fd5b34801561005257600080fd5b5061006d60048036036100689190810190610220565b610083565b60405161007a91906102c2565b60405180910390f35b6060806100a9610092846100b5565b61009b866100b5565b6100e390919063ffffffff16565b90508091505092915050565b6100bd6101b0565b600060208301905060408051908101604052808451815260200182815250915050919050565b606080600083600001518560000151016040519080825280601f01601f1916602001820160405280156101255781602001602082028038833980820191505090505b5091506020820190506101418186602001518760000151610165565b61015a8560000151820185602001518660000151610165565b819250505092915050565b60005b60208210151561018d5782518452602084019350602083019250602082039150610168565b6001826020036101000a0390508019835116818551168181178652505050505050565b604080519081016040528060008152602001600081525090565b600082601f83011215156101dd57600080fd5b81356101f06101eb82610311565b6102e4565b9150808252602083016020830185838301111561020c57600080fd5b610217838284610348565b50505092915050565b6000806040838503121561023357600080fd5b600083013567ffffffffffffffff81111561024d57600080fd5b610259858286016101ca565b925050602083013567ffffffffffffffff81111561027657600080fd5b610282858286016101ca565b9150509250929050565b60006102978261033d565b8084526102ab816020860160208601610357565b6102b48161038a565b602085010191505092915050565b600060208201905081810360008301526102dc818461028c565b905092915050565b6000604051905081810181811067ffffffffffffffff8211171561030757600080fd5b8060405250919050565b600067ffffffffffffffff82111561032857600080fd5b601f19601f8301169050602081019050919050565b600081519050919050565b82818337600083830152505050565b60005b8381101561037557808201518184015260208101905061035a565b83811115610384576000848401525b50505050565b6000601f19601f83011690509190505600a265627a7a72305820b6a1aac6e332df85e8a9971abdf3c4ea7e41f26a5163af949b604e27b82dbaec6c6578706572696d656e74616cf50037",
  "source": "pragma solidity ^0.4.0;\r\npragma experimental ABIEncoderV2;\r\nimport \"../strings.sol\";\r\n\r\ncontract CallTest {\r\n    using strings for *;\r\n     \r\n    function foo (string s1, string s2) public view  returns(string){\r\n        string memory  s = s1.toSlice().concat(s2.toSlice());\r\n        return s;\r\n    }\r\n\r\n}\r\n",
  "sourcePath": "C:\\Users\\10848\\Desktop\\solidity\\drugtracer\\contracts\\CallTest.sol",
  "compiler": {
    "name": "solc",
    "version": "0.4.24+commit.e67f0147.Emscripten.clang"
  },
  "schemaVersion": "2.0.1",
  "updatedAt": "2018-09-06T11:53:10.178Z"
}