{
  "contractName": "CallTest",
  "abi": [
    {
      "constant": true,
      "inputs": [],
      "name": "s",
      "outputs": [
        {
          "name": "",
          "type": "string"
        }
      ],
      "payable": false,
      "stateMutability": "view",
      "type": "function"
    },
    {
      "constant": false,
      "inputs": [
        {
          "name": "s1",
          "type": "string"
        },
        {
          "name": "s2",
          "type": "string"
        }
      ],
      "name": "foo",
      "outputs": [],
      "payable": false,
      "stateMutability": "nonpayable",
      "type": "function"
    }
  ],
  "bytecode": "0x608060405234801561001057600080fd5b50610545806100206000396000f30060806040526004361061004c576000357c0100000000000000000000000000000000000000000000000000000000900463ffffffff168063124a83fa1461005157806386b714e21461007a575b600080fd5b34801561005d57600080fd5b5061007860048036036100739190810190610390565b6100a5565b005b34801561008657600080fd5b5061008f6100e2565b60405161009c9190610432565b60405180910390f35b6100c86100b182610180565b6100ba84610180565b6101ae90919063ffffffff16565b600090805190602001906100dd92919061027b565b505050565b60008054600181600116156101000203166002900480601f0160208091040260200160405190810160405280929190818152602001828054600181600116156101000203166002900480156101785780601f1061014d57610100808354040283529160200191610178565b820191906000526020600020905b81548152906001019060200180831161015b57829003601f168201915b505050505081565b6101886102fb565b600060208301905060408051908101604052808451815260200182815250915050919050565b606080600083600001518560000151016040519080825280601f01601f1916602001820160405280156101f05781602001602082028038833980820191505090505b50915060208201905061020c8186602001518760000151610230565b6102258560000151820185602001518660000151610230565b819250505092915050565b60005b6020821015156102585782518452602084019350602083019250602082039150610233565b6001826020036101000a0390508019835116818551168181178652505050505050565b828054600181600116156101000203166002900490600052602060002090601f016020900481019282601f106102bc57805160ff19168380011785556102ea565b828001600101855582156102ea579182015b828111156102e95782518255916020019190600101906102ce565b5b5090506102f79190610315565b5090565b604080519081016040528060008152602001600081525090565b61033791905b8082111561033357600081600090555060010161031b565b5090565b90565b600082601f830112151561034d57600080fd5b813561036061035b82610481565b610454565b9150808252602083016020830185838301111561037c57600080fd5b6103878382846104b8565b50505092915050565b600080604083850312156103a357600080fd5b600083013567ffffffffffffffff8111156103bd57600080fd5b6103c98582860161033a565b925050602083013567ffffffffffffffff8111156103e657600080fd5b6103f28582860161033a565b9150509250929050565b6000610407826104ad565b80845261041b8160208601602086016104c7565b610424816104fa565b602085010191505092915050565b6000602082019050818103600083015261044c81846103fc565b905092915050565b6000604051905081810181811067ffffffffffffffff8211171561047757600080fd5b8060405250919050565b600067ffffffffffffffff82111561049857600080fd5b601f19601f8301169050602081019050919050565b600081519050919050565b82818337600083830152505050565b60005b838110156104e55780820151818401526020810190506104ca565b838111156104f4576000848401525b50505050565b6000601f19601f83011690509190505600a265627a7a723058202244b8729f899cbce3fd48ef489e7b3fc7d34a5ea201c0c834dc799a9090c6f16c6578706572696d656e74616cf50037",
  "source": "pragma solidity ^0.4.20;\r\npragma experimental ABIEncoderV2;\r\nimport \"../strings.sol\";\r\n\r\ncontract CallTest {\r\n    using strings for *;\r\n    string public s;\r\n\r\n    function foo(string s1, string s2) {\r\n        s = s1.toSlice().concat(s2.toSlice());\r\n    }\r\n}\r\n",
  "sourcePath": "C:\\Users\\10848\\Desktop\\solidity\\drugtracer\\contracts\\CallTest.sol",
  "compiler": {
    "name": "solc",
    "version": "0.4.24+commit.e67f0147.Emscripten.clang"
  },
  "schemaVersion": "2.0.1",
  "updatedAt": "2018-09-05T11:26:18.431Z"
}