{
  "contractName": "CallTest",
  "abi": [
    {
      "constant": true,
      "inputs": [],
      "name": "array",
      "outputs": [
        {
          "name": "",
          "type": "bytes4[]"
        }
      ],
      "payable": false,
      "stateMutability": "view",
      "type": "function"
    }
  ],
  "bytecode": "0x608060405234801561001057600080fd5b50610472806100206000396000f300608060405260043610610041576000357c0100000000000000000000000000000000000000000000000000000000900463ffffffff168063b0ec2ae114610046575b600080fd5b34801561005257600080fd5b5061005b610071565b60405161006891906103c5565b60405180910390f35b6060600062bc614e9080600181540180825580915050906001820390600052602060002090600891828204019190066004029091927c010000000000000000000000000000000000000000000000000000000002909190916101000a81548163ffffffff02191690837c01000000000000000000000000000000000000000000000000000000009004021790555050600062bc614e9080600181540180825580915050906001820390600052602060002090600891828204019190066004029091927c010000000000000000000000000000000000000000000000000000000002909190916101000a81548163ffffffff02191690837c01000000000000000000000000000000000000000000000000000000009004021790555050600062bc614e9080600181540180825580915050906001820390600052602060002090600891828204019190066004029091927c010000000000000000000000000000000000000000000000000000000002909190916101000a81548163ffffffff02191690837c0100000000000000000000000000000000000000000000000000000000900402179055505060006201e2409080600181540180825580915050906001820390600052602060002090600891828204019190066004029091927c010000000000000000000000000000000000000000000000000000000002909190916101000a81548163ffffffff02191690837c01000000000000000000000000000000000000000000000000000000009004021790555050600080548060200260200160405190810160405280929190818152602001828054801561035157602002820191906000526020600020906000905b82829054906101000a90047c0100000000000000000000000000000000000000000000000000000000027bffffffffffffffffffffffffffffffffffffffffffffffffffffffff1916815260200190600401906020826003010492830192600103820291508084116102e25790505b5050505050905090565b6000610366826103f4565b808452602084019350610378836103e7565b60005b828110156103aa5761038e8683516103b6565b610397826103ff565b915060208601955060018101905061037b565b50849250505092915050565b6103bf8161040c565b82525050565b600060208201905081810360008301526103df818461035b565b905092915050565b6000602082019050919050565b600081519050919050565b6000602082019050919050565b60007fffffffff00000000000000000000000000000000000000000000000000000000821690509190505600a265627a7a72305820e912a06e153caf7cfb9d7d07eb882bec47c4d926f25b4cf27866070f5484aa576c6578706572696d656e74616cf50037",
  "source": "pragma solidity ^0.4.0;\r\npragma experimental ABIEncoderV2;\r\ncontract CallTest{\r\n    bytes4 [] b ;\r\n    function array()  constant public returns(bytes4 []){\r\n        b.push(12345678);\r\n        b.push(12345678);\r\n        b.push(12345678);\r\n        b.push(123456);\r\n        return b;\r\n    }\r\n}\r\n",
  "sourcePath": "C:\\Users\\10848\\Desktop\\solidity\\drugtracer\\contracts\\CallTest.sol",
  "compiler": {
    "name": "solc",
    "version": "0.4.24+commit.e67f0147.Emscripten.clang"
  },
  "schemaVersion": "2.0.1",
  "updatedAt": "2018-09-04T12:38:26.514Z"
}