{
  "contractName": "DrugTracer",
  "abi": [
    {
      "constant": false,
      "inputs": [
        {
          "name": "drugCode",
          "type": "string"
        },
        {
          "name": "drug",
          "type": "string"
        },
        {
          "name": "producer",
          "type": "address"
        },
        {
          "name": "produceDate",
          "type": "string"
        }
      ],
      "name": "setProduce",
      "outputs": [
        {
          "name": "",
          "type": "bool"
        }
      ],
      "payable": false,
      "stateMutability": "nonpayable",
      "type": "function"
    },
    {
      "constant": false,
      "inputs": [
        {
          "name": "number",
          "type": "string"
        },
        {
          "name": "drugCode",
          "type": "string"
        },
        {
          "name": "volume",
          "type": "uint256"
        },
        {
          "name": "toMerchant",
          "type": "address"
        }
      ],
      "name": "setInflow",
      "outputs": [
        {
          "name": "",
          "type": "bool"
        }
      ],
      "payable": false,
      "stateMutability": "nonpayable",
      "type": "function"
    },
    {
      "constant": false,
      "inputs": [
        {
          "name": "number",
          "type": "string"
        }
      ],
      "name": "getInflow",
      "outputs": [
        {
          "components": [
            {
              "name": "drugCode",
              "type": "string"
            },
            {
              "name": "volume",
              "type": "uint256"
            },
            {
              "name": "toMerchant",
              "type": "address"
            }
          ],
          "name": "",
          "type": "tuple"
        }
      ],
      "payable": false,
      "stateMutability": "nonpayable",
      "type": "function"
    },
    {
      "constant": false,
      "inputs": [
        {
          "name": "drugCode",
          "type": "string"
        }
      ],
      "name": "getProduce",
      "outputs": [
        {
          "components": [
            {
              "name": "drug",
              "type": "string"
            },
            {
              "name": "state",
              "type": "bool"
            },
            {
              "name": "producerCode",
              "type": "address"
            },
            {
              "name": "produceDate",
              "type": "string"
            }
          ],
          "name": "",
          "type": "tuple"
        }
      ],
      "payable": false,
      "stateMutability": "nonpayable",
      "type": "function"
    },
    {
      "constant": false,
      "inputs": [
        {
          "name": "number",
          "type": "string"
        },
        {
          "name": "inflowNumber",
          "type": "string"
        },
        {
          "name": "circulateDate",
          "type": "string"
        },
        {
          "name": "volume",
          "type": "uint256"
        },
        {
          "name": "toDrugstore",
          "type": "address"
        }
      ],
      "name": "setRoll",
      "outputs": [
        {
          "name": "",
          "type": "bool"
        }
      ],
      "payable": false,
      "stateMutability": "nonpayable",
      "type": "function"
    }
  ],
  "bytecode": "0x608060405234801561001057600080fd5b5061112a806100206000396000f30060806040526004361061006d576000357c0100000000000000000000000000000000000000000000000000000000900463ffffffff1680630bc60d7b146100725780638117919b146100af578063adb7f3a8146100ec578063bb7ca88c14610129578063ddf2402514610166575b600080fd5b34801561007e57600080fd5b5061009960048036036100949190810190610c1f565b6101a3565b6040516100a69190610f95565b60405180910390f35b3480156100bb57600080fd5b506100d660048036036100d19190810190610dca565b61032b565b6040516100e39190610f7a565b60405180910390f35b3480156100f857600080fd5b50610113600480360361010e9190810190610c60565b61045d565b6040516101209190610f7a565b60405180910390f35b34801561013557600080fd5b50610150600480360361014b9190810190610d0b565b6105c1565b60405161015d9190610f7a565b60405180910390f35b34801561017257600080fd5b5061018d60048036036101889190810190610c1f565b610709565b60405161019a9190610fb7565b60405180910390f35b6101ab6109c4565b6001826040518082805190602001908083835b6020831015156101e357805182526020820191506020810190506020830392506101be565b6001836020036101000a038019825116818451168082178552505050505050905001915050908152602001604051809103902060606040519081016040529081600082018054600181600116156101000203166002900480601f0160208091040260200160405190810160405280929190818152602001828054600181600116156101000203166002900480156102bb5780601f10610290576101008083540402835291602001916102bb565b820191906000526020600020905b81548152906001019060200180831161029e57829003601f168201915b50505050508152602001600182015481526020016002820160009054906101000a900473ffffffffffffffffffffffffffffffffffffffff1673ffffffffffffffffffffffffffffffffffffffff1673ffffffffffffffffffffffffffffffffffffffff16815250509050919050565b60006103356109c4565b6060604051908101604052808681526020018581526020018473ffffffffffffffffffffffffffffffffffffffff168152509050806001876040518082805190602001908083835b6020831015156103a2578051825260208201915060208101905060208303925061037d565b6001836020036101000a038019825116818451168082178552505050505050905001915050908152602001604051809103902060008201518160000190805190602001906103f19291906109fc565b506020820151816001015560408201518160020160006101000a81548173ffffffffffffffffffffffffffffffffffffffff021916908373ffffffffffffffffffffffffffffffffffffffff1602179055509050506104508387610944565b6001915050949350505050565b6000610467610a7c565b6080604051908101604052808681526020016001151581526020018573ffffffffffffffffffffffffffffffffffffffff168152602001848152509050806000876040518082805190602001908083835b6020831015156104dd57805182526020820191506020810190506020830392506104b8565b6001836020036101000a0380198251168184511680821785525050505050509050019150509081526020016040518091039020600082015181600001908051906020019061052c9291906109fc565b5060208201518160010160006101000a81548160ff02191690831515021790555060408201518160010160016101000a81548173ffffffffffffffffffffffffffffffffffffffff021916908373ffffffffffffffffffffffffffffffffffffffff16021790555060608201518160020190805190602001906105b09291906109fc565b509050506001915050949350505050565b60006105cb610abd565b6080604051908101604052808781526020018681526020018581526020018473ffffffffffffffffffffffffffffffffffffffff168152509050806003886040518082805190602001908083835b60208310151561063e5780518252602082019150602081019050602083039250610619565b6001836020036101000a0380198251168184511680821785525050505050509050019150509081526020016040518091039020600082015181600001908051906020019061068d9291906109fc565b5060208201518160010190805190602001906106aa9291906109fc565b506040820151816002015560608201518160030160006101000a81548173ffffffffffffffffffffffffffffffffffffffff021916908373ffffffffffffffffffffffffffffffffffffffff1602179055509050505095945050505050565b610711610a7c565b6000826040518082805190602001908083835b6020831015156107495780518252602082019150602081019050602083039250610724565b6001836020036101000a038019825116818451168082178552505050505050905001915050908152602001604051809103902060806040519081016040529081600082018054600181600116156101000203166002900480601f0160208091040260200160405190810160405280929190818152602001828054600181600116156101000203166002900480156108215780601f106107f657610100808354040283529160200191610821565b820191906000526020600020905b81548152906001019060200180831161080457829003601f168201915b505050505081526020016001820160009054906101000a900460ff161515151581526020016001820160019054906101000a900473ffffffffffffffffffffffffffffffffffffffff1673ffffffffffffffffffffffffffffffffffffffff1673ffffffffffffffffffffffffffffffffffffffff168152602001600282018054600181600116156101000203166002900480601f0160208091040260200160405190810160405280929190818152602001828054600181600116156101000203166002900480156109345780601f1061090957610100808354040283529160200191610934565b820191906000526020600020905b81548152906001019060200180831161091757829003601f168201915b5050505050815250509050919050565b600260008373ffffffffffffffffffffffffffffffffffffffff1673ffffffffffffffffffffffffffffffffffffffff1681526020019081526020016000208190806001815401808255809150509060018203906000526020600020016000909192909190915090805190602001906109be929190610afc565b50505050565b6060604051908101604052806060815260200160008152602001600073ffffffffffffffffffffffffffffffffffffffff1681525090565b828054600181600116156101000203166002900490600052602060002090601f016020900481019282601f10610a3d57805160ff1916838001178555610a6b565b82800160010185558215610a6b579182015b82811115610a6a578251825591602001919060010190610a4f565b5b509050610a789190610b7c565b5090565b60806040519081016040528060608152602001600015158152602001600073ffffffffffffffffffffffffffffffffffffffff168152602001606081525090565b608060405190810160405280606081526020016060815260200160008152602001600073ffffffffffffffffffffffffffffffffffffffff1681525090565b828054600181600116156101000203166002900490600052602060002090601f016020900481019282601f10610b3d57805160ff1916838001178555610b6b565b82800160010185558215610b6b579182015b82811115610b6a578251825591602001919060010190610b4f565b5b509050610b789190610b7c565b5090565b610b9e91905b80821115610b9a576000816000905550600101610b82565b5090565b90565b6000610bad8235611073565b905092915050565b600082601f8301121515610bc857600080fd5b8135610bdb610bd682611006565b610fd9565b91508082526020830160208301858383011115610bf757600080fd5b610c0283828461109d565b50505092915050565b6000610c178235611093565b905092915050565b600060208284031215610c3157600080fd5b600082013567ffffffffffffffff811115610c4b57600080fd5b610c5784828501610bb5565b91505092915050565b60008060008060808587031215610c7657600080fd5b600085013567ffffffffffffffff811115610c9057600080fd5b610c9c87828801610bb5565b945050602085013567ffffffffffffffff811115610cb957600080fd5b610cc587828801610bb5565b9350506040610cd687828801610ba1565b925050606085013567ffffffffffffffff811115610cf357600080fd5b610cff87828801610bb5565b91505092959194509250565b600080600080600060a08688031215610d2357600080fd5b600086013567ffffffffffffffff811115610d3d57600080fd5b610d4988828901610bb5565b955050602086013567ffffffffffffffff811115610d6657600080fd5b610d7288828901610bb5565b945050604086013567ffffffffffffffff811115610d8f57600080fd5b610d9b88828901610bb5565b9350506060610dac88828901610c0b565b9250506080610dbd88828901610ba1565b9150509295509295909350565b60008060008060808587031215610de057600080fd5b600085013567ffffffffffffffff811115610dfa57600080fd5b610e0687828801610bb5565b945050602085013567ffffffffffffffff811115610e2357600080fd5b610e2f87828801610bb5565b9350506040610e4087828801610c0b565b9250506060610e5187828801610ba1565b91505092959194509250565b610e668161103d565b82525050565b610e758161105d565b82525050565b6000610e8682611032565b808452610e9a8160208601602086016110ac565b610ea3816110df565b602085010191505092915050565b60006060830160008301518482036000860152610ece8282610e7b565b9150506020830151610ee36020860182610f6b565b506040830151610ef66040860182610e5d565b508091505092915050565b60006080830160008301518482036000860152610f1e8282610e7b565b9150506020830151610f336020860182610e6c565b506040830151610f466040860182610e5d565b5060608301518482036060860152610f5e8282610e7b565b9150508091505092915050565b610f7481611069565b82525050565b6000602082019050610f8f6000830184610e6c565b92915050565b60006020820190508181036000830152610faf8184610eb1565b905092915050565b60006020820190508181036000830152610fd18184610f01565b905092915050565b6000604051905081810181811067ffffffffffffffff82111715610ffc57600080fd5b8060405250919050565b600067ffffffffffffffff82111561101d57600080fd5b601f19601f8301169050602081019050919050565b600081519050919050565b600073ffffffffffffffffffffffffffffffffffffffff82169050919050565b60008115159050919050565b6000819050919050565b600073ffffffffffffffffffffffffffffffffffffffff82169050919050565b6000819050919050565b82818337600083830152505050565b60005b838110156110ca5780820151818401526020810190506110af565b838111156110d9576000848401525b50505050565b6000601f19601f83011690509190505600a265627a7a723058207c2df680fe3aa7caa0162dc990b1a8cb0f9f3dd013b4fe848565ccb8594ae3bd6c6578706572696d656e74616cf50037",
  "source": "pragma solidity ^0.4.0;\r\npragma experimental ABIEncoderV2;\r\ncontract DrugTracer {\r\n\r\n    //------------------------------------------\r\n\r\n    //出厂信息\r\n    struct ProduceDetail {\r\n        string  drug;           //药品名称\r\n        bool    state;          //合格状态\r\n        address producerCode;   //厂商地址\r\n        string  produceDate;   //出厂日期\r\n    }\r\n\r\n    //出厂信息映射\r\n    mapping (string => ProduceDetail) produceList;\r\n\r\n    //流入市场信息\r\n    struct InflowDetail {\r\n        string  drugCode;   //药品批号\r\n        uint    volume;     //交易量\r\n        address toMerchant;         //销售商地址\r\n    }\r\n\r\n    //流入市场信息映射\r\n    mapping (string => InflowDetail) inflowList;\r\n\r\n    //流入记录\r\n    mapping (address => string[]) simpleInflowList;\r\n\r\n    //-------------------------------------------\r\n\r\n    //流通信息\r\n    struct RollDetail {\r\n        string  inflowNumber;   //流入交易单号\r\n        string  circulateDate;  //流通日期\r\n        uint    volume;         //流通量\r\n        address toDrugstore;    //药店编号\r\n    }\r\n\r\n    //流通信息映射\r\n    mapping (string=>RollDetail) rollList;\r\n\r\n    //简化流出记录\r\n    mapping (address=>string[]) simpleRollList;\r\n\r\n    //---------------------------------------------\r\n\r\n    //销售信息\r\n    struct SaleDetail {\r\n        string  circulateNumber;    //流出交易单号\r\n        address customerNumber;     //消费者编号\r\n        uint    volume;             //交易量\r\n        string  saleDate;           //销售日期\r\n    }\r\n\r\n    //销售信息映射\r\n    mapping (string=>SaleDetail) saleList;\r\n\r\n    //简化销售记录\r\n    mapping (address=>string[]) simpleSaleList;\r\n\r\n    //---------------------------------------------\r\n\r\n    //举报信息\r\n    struct ReportDetail {\r\n        string  saleNumber; //交易单号\r\n        string  reportDate; //举报日期\r\n        string  report;     //举报内容\r\n        bool    state;      //受理状态\r\n    }\r\n\r\n    //举报信息映射\r\n    mapping (string=>ReportDetail) reportList;\r\n\r\n    //简单举报信息映射\r\n    mapping (address=>string[]) simplereportList;\r\n\r\n    //---------------------------------------------\r\n\r\n    //受理信息\r\n    struct DealDetail {\r\n        string  dealDate;   //受理日期\r\n        bool    result;     //受理结果\r\n    }\r\n\r\n    //受理信息映射\r\n    mapping (string=>DealDetail) dealList;\r\n\r\n    //举报记录\r\n    string[] reports;\r\n\r\n    //---------------------------------------------\r\n\r\n    //插入出厂记录，state默认true，药品批号由前端生成，返回处理结果（布尔值）\r\n    //drugCode:药品批号\r\n    //drug:药品名称\r\n    //producer:厂商编号\r\n    //produceDate:出厂日期\r\n    //return:true成功，false失败\r\n    function setProduce (\r\n                        string drugCode,\r\n                        string drug,\r\n                        address producer,\r\n                        string produceDate)\r\n                        public returns (bool) {\r\n        ProduceDetail memory drugInfo = ProduceDetail(drug, true, producer, produceDate);\r\n        produceList[drugCode] = drugInfo;\r\n        return true;\r\n    }\r\n    //------------------------------------------------\r\n    \r\n    //插入流入市场记录，交易单号为交易的hash值，返回处理结果（布尔值）\r\n    //number:流入交易单号\r\n    //drugCode:药品批号\r\n    //volume:交易量\r\n    //toMerchant:销售商地址\r\n    //return:true成功，false失败\r\n    function setInflow (\r\n                        string number,\r\n                        string drugCode,\r\n                        uint volume,\r\n                        address toMerchant)\r\n                        public returns (bool) {\r\n        InflowDetail memory inflowInfo = InflowDetail(drugCode, volume, toMerchant);\r\n        inflowList[number] = inflowInfo;\r\n        setSimpleInflow(toMerchant, number);\r\n        return true;\r\n    }\r\n    //------------------------------------------------\r\n    \r\n    //插入简单记录，内部方法\r\n    //to:\r\n    function setSimpleInflow (address to, string number) internal {\r\n        simpleInflowList[to].push(number);\r\n    }\r\n    //------------------------------------------------    \r\n\r\n    function getInflow(string number) public returns(InflowDetail){\r\n        return inflowList[number];\r\n    }\r\n    //------------------------------------------------\r\n    \r\n    function getProduce(string drugCode) public returns(ProduceDetail){\r\n        return produceList[drugCode];\r\n    }\r\n    //------------------------------------------------\r\n    \r\n    function getSimpleInflow(address to) internal returns(string[]){\r\n        return simpleInflowList[to];\r\n    }\r\n    //------------------------------------------------\r\n    \r\n    function setRoll(\r\n                    string number,\r\n                    string inflowNumber,\r\n                    string circulateDate,\r\n                    uint volume,\r\n                    address toDrugstore)\r\n                    public returns(bool){\r\n        RollDetail memory RollInfo = RollDetail(inflowNumber,circulateDate,volume,toDrugstore);\r\n        rollList[number] = RollInfo;\r\n    }\r\n    //------------------------------------------------\r\n    \r\n    //function getSimple\r\n\r\n}\r\n",
  "sourcePath": "C:\\Users\\10848\\Desktop\\solidity\\drugtracer\\contracts\\Drugtracer.sol",
  "compiler": {
    "name": "solc",
    "version": "0.4.24+commit.e67f0147.Emscripten.clang"
  },
  "schemaVersion": "2.0.1",
  "updatedAt": "2018-09-05T11:26:18.435Z"
}