{
  "contractName": "DrugTracer",
  "abi": [
    {
      "constant": false,
      "inputs": [
        {
          "name": "drugCode",
          "type": "string"
        },
        {
          "name": "drug",
          "type": "string"
        },
        {
          "name": "producer",
          "type": "address"
        },
        {
          "name": "produceDate",
          "type": "string"
        },
        {
          "name": "volume",
          "type": "uint256"
        }
      ],
      "name": "setProduce",
      "outputs": [
        {
          "name": "",
          "type": "bool"
        }
      ],
      "payable": false,
      "stateMutability": "nonpayable",
      "type": "function"
    },
    {
      "constant": false,
      "inputs": [
        {
          "name": "number",
          "type": "string"
        },
        {
          "name": "drugCode",
          "type": "string"
        },
        {
          "name": "inflowDate",
          "type": "string"
        },
        {
          "name": "volume",
          "type": "uint256"
        },
        {
          "name": "toMerchant",
          "type": "address"
        }
      ],
      "name": "setInflow",
      "outputs": [
        {
          "name": "",
          "type": "bool"
        }
      ],
      "payable": false,
      "stateMutability": "nonpayable",
      "type": "function"
    },
    {
      "constant": false,
      "inputs": [
        {
          "name": "number",
          "type": "string"
        },
        {
          "name": "inflowNumber",
          "type": "string"
        },
        {
          "name": "circulateDate",
          "type": "string"
        },
        {
          "name": "volume",
          "type": "uint256"
        },
        {
          "name": "toDrugstore",
          "type": "address"
        }
      ],
      "name": "setRoll",
      "outputs": [
        {
          "name": "",
          "type": "bool"
        }
      ],
      "payable": false,
      "stateMutability": "nonpayable",
      "type": "function"
    },
    {
      "constant": false,
      "inputs": [
        {
          "name": "number",
          "type": "string"
        },
        {
          "name": "circulateNumber",
          "type": "string"
        },
        {
          "name": "customerNumber",
          "type": "address"
        },
        {
          "name": "volume",
          "type": "uint256"
        },
        {
          "name": "saleDate",
          "type": "string"
        }
      ],
      "name": "setSale",
      "outputs": [
        {
          "name": "",
          "type": "bool"
        }
      ],
      "payable": false,
      "stateMutability": "nonpayable",
      "type": "function"
    },
    {
      "constant": false,
      "inputs": [
        {
          "name": "number",
          "type": "string"
        },
        {
          "name": "saleNumber",
          "type": "string"
        },
        {
          "name": "reportDate",
          "type": "string"
        },
        {
          "name": "reporter",
          "type": "address"
        },
        {
          "name": "report",
          "type": "string"
        },
        {
          "name": "state",
          "type": "bool"
        }
      ],
      "name": "setReport",
      "outputs": [
        {
          "name": "",
          "type": "bool"
        }
      ],
      "payable": false,
      "stateMutability": "nonpayable",
      "type": "function"
    },
    {
      "constant": false,
      "inputs": [
        {
          "name": "number",
          "type": "string"
        },
        {
          "name": "dealDate",
          "type": "string"
        },
        {
          "name": "drugCode",
          "type": "string"
        },
        {
          "name": "result",
          "type": "bool"
        }
      ],
      "name": "setDeal",
      "outputs": [
        {
          "name": "",
          "type": "bool"
        }
      ],
      "payable": false,
      "stateMutability": "nonpayable",
      "type": "function"
    },
    {
      "constant": true,
      "inputs": [
        {
          "name": "drugCode",
          "type": "string"
        }
      ],
      "name": "getProduce",
      "outputs": [
        {
          "name": "",
          "type": "string"
        },
        {
          "name": "",
          "type": "string"
        },
        {
          "name": "",
          "type": "bool"
        },
        {
          "name": "",
          "type": "address"
        },
        {
          "name": "",
          "type": "string"
        },
        {
          "name": "",
          "type": "uint256"
        },
        {
          "name": "",
          "type": "uint256"
        }
      ],
      "payable": false,
      "stateMutability": "view",
      "type": "function"
    },
    {
      "constant": true,
      "inputs": [
        {
          "name": "number",
          "type": "string"
        }
      ],
      "name": "getInflow",
      "outputs": [
        {
          "name": "",
          "type": "string"
        },
        {
          "name": "",
          "type": "string"
        },
        {
          "name": "",
          "type": "uint256"
        },
        {
          "name": "",
          "type": "address"
        },
        {
          "name": "",
          "type": "uint256"
        }
      ],
      "payable": false,
      "stateMutability": "view",
      "type": "function"
    },
    {
      "constant": true,
      "inputs": [
        {
          "name": "to",
          "type": "address"
        }
      ],
      "name": "getLengthInflow",
      "outputs": [
        {
          "name": "",
          "type": "uint256"
        }
      ],
      "payable": false,
      "stateMutability": "view",
      "type": "function"
    },
    {
      "constant": true,
      "inputs": [
        {
          "name": "to",
          "type": "address"
        },
        {
          "name": "offset",
          "type": "uint256"
        }
      ],
      "name": "getNextInflow",
      "outputs": [
        {
          "name": "",
          "type": "string"
        }
      ],
      "payable": false,
      "stateMutability": "view",
      "type": "function"
    },
    {
      "constant": true,
      "inputs": [],
      "name": "getStateProduce",
      "outputs": [
        {
          "name": "",
          "type": "bool"
        }
      ],
      "payable": false,
      "stateMutability": "view",
      "type": "function"
    },
    {
      "constant": true,
      "inputs": [],
      "name": "getStateInflow",
      "outputs": [
        {
          "name": "",
          "type": "bool"
        }
      ],
      "payable": false,
      "stateMutability": "view",
      "type": "function"
    },
    {
      "constant": true,
      "inputs": [
        {
          "name": "number",
          "type": "string"
        }
      ],
      "name": "getRoll",
      "outputs": [
        {
          "name": "",
          "type": "string"
        },
        {
          "name": "",
          "type": "string"
        },
        {
          "name": "",
          "type": "string"
        },
        {
          "name": "",
          "type": "uint256"
        },
        {
          "name": "",
          "type": "address"
        },
        {
          "name": "",
          "type": "uint256"
        }
      ],
      "payable": false,
      "stateMutability": "view",
      "type": "function"
    },
    {
      "constant": true,
      "inputs": [
        {
          "name": "to",
          "type": "address"
        }
      ],
      "name": "getLengthRoll",
      "outputs": [
        {
          "name": "",
          "type": "uint256"
        }
      ],
      "payable": false,
      "stateMutability": "view",
      "type": "function"
    },
    {
      "constant": true,
      "inputs": [
        {
          "name": "to",
          "type": "address"
        },
        {
          "name": "offset",
          "type": "uint256"
        }
      ],
      "name": "getNextRoll",
      "outputs": [
        {
          "name": "",
          "type": "string"
        }
      ],
      "payable": false,
      "stateMutability": "view",
      "type": "function"
    },
    {
      "constant": true,
      "inputs": [],
      "name": "getStateRoll",
      "outputs": [
        {
          "name": "",
          "type": "bool"
        }
      ],
      "payable": false,
      "stateMutability": "view",
      "type": "function"
    },
    {
      "constant": true,
      "inputs": [
        {
          "name": "number",
          "type": "string"
        }
      ],
      "name": "getSale",
      "outputs": [
        {
          "name": "",
          "type": "string"
        },
        {
          "name": "",
          "type": "string"
        },
        {
          "name": "",
          "type": "address"
        },
        {
          "name": "",
          "type": "uint256"
        },
        {
          "name": "",
          "type": "string"
        }
      ],
      "payable": false,
      "stateMutability": "view",
      "type": "function"
    },
    {
      "constant": true,
      "inputs": [
        {
          "name": "to",
          "type": "address"
        }
      ],
      "name": "getLengthSale",
      "outputs": [
        {
          "name": "",
          "type": "uint256"
        }
      ],
      "payable": false,
      "stateMutability": "view",
      "type": "function"
    },
    {
      "constant": true,
      "inputs": [
        {
          "name": "to",
          "type": "address"
        },
        {
          "name": "offset",
          "type": "uint256"
        }
      ],
      "name": "getNextSale",
      "outputs": [
        {
          "name": "",
          "type": "string"
        }
      ],
      "payable": false,
      "stateMutability": "view",
      "type": "function"
    },
    {
      "constant": true,
      "inputs": [],
      "name": "getStateSale",
      "outputs": [
        {
          "name": "",
          "type": "bool"
        }
      ],
      "payable": false,
      "stateMutability": "view",
      "type": "function"
    },
    {
      "constant": true,
      "inputs": [
        {
          "name": "number",
          "type": "string"
        }
      ],
      "name": "getReport",
      "outputs": [
        {
          "name": "",
          "type": "string"
        },
        {
          "name": "",
          "type": "string"
        },
        {
          "name": "",
          "type": "string"
        },
        {
          "name": "",
          "type": "address"
        },
        {
          "name": "",
          "type": "string"
        },
        {
          "name": "",
          "type": "bool"
        }
      ],
      "payable": false,
      "stateMutability": "view",
      "type": "function"
    },
    {
      "constant": true,
      "inputs": [
        {
          "name": "to",
          "type": "address"
        }
      ],
      "name": "getLengthReport",
      "outputs": [
        {
          "name": "",
          "type": "uint256"
        }
      ],
      "payable": false,
      "stateMutability": "view",
      "type": "function"
    },
    {
      "constant": true,
      "inputs": [
        {
          "name": "to",
          "type": "address"
        },
        {
          "name": "offset",
          "type": "uint256"
        }
      ],
      "name": "getNextReport",
      "outputs": [
        {
          "name": "",
          "type": "string"
        }
      ],
      "payable": false,
      "stateMutability": "view",
      "type": "function"
    },
    {
      "constant": true,
      "inputs": [
        {
          "name": "number",
          "type": "string"
        }
      ],
      "name": "getSource",
      "outputs": [
        {
          "name": "",
          "type": "string"
        },
        {
          "name": "",
          "type": "string"
        },
        {
          "name": "",
          "type": "string"
        },
        {
          "name": "",
          "type": "string"
        }
      ],
      "payable": false,
      "stateMutability": "view",
      "type": "function"
    },
    {
      "constant": true,
      "inputs": [],
      "name": "getStateReport",
      "outputs": [
        {
          "name": "",
          "type": "bool"
        }
      ],
      "payable": false,
      "stateMutability": "view",
      "type": "function"
    },
    {
      "constant": true,
      "inputs": [],
      "name": "getLengthReports",
      "outputs": [
        {
          "name": "",
          "type": "uint256"
        }
      ],
      "payable": false,
      "stateMutability": "view",
      "type": "function"
    },
    {
      "constant": true,
      "inputs": [
        {
          "name": "offset",
          "type": "uint256"
        }
      ],
      "name": "getNextReports",
      "outputs": [
        {
          "name": "",
          "type": "string"
        }
      ],
      "payable": false,
      "stateMutability": "view",
      "type": "function"
    },
    {
      "constant": true,
      "inputs": [],
      "name": "getStateDeal",
      "outputs": [
        {
          "name": "",
          "type": "bool"
        }
      ],
      "payable": false,
      "stateMutability": "view",
      "type": "function"
    }
  ],
  "bytecode": "0x608060405260018060006101000a81548160ff0219169083151502179055506001600360006101000a81548160ff0219169083151502179055506001600660006101000a81548160ff0219169083151502179055506001600960006101000a81548160ff0219169083151502179055506001600c60006101000a81548160ff0219169083151502179055506001600f60006101000a81548160ff0219169083151502179055503480156100b157600080fd5b50614d91806100c16000396000f300608060405260043610610169576000357c0100000000000000000000000000000000000000000000000000000000900463ffffffff168062f5e5c31461016e5780630bc60d7b1461019d5780630d1d3efc1461032c57806310496fdf146103835780631175710b146103da57806312e63d71146105115780631513900714610775578063269cd802146108ac578063291fcec814610a2b5780632de04e0314610ad15780633eda072314610cc55780634b99c07814610d8b578063661475f114610dba578063663d24e014610de95780637cc3e0e614610f025780638d4b8e1d1461112857806392d1d73b146111575780639312cc2c146111825780639656baf9146112b9578063bb7ca88c1461137f578063bcdbfbbc146114b6578063c5765d8f146116b1578063c5afcfcc146116e0578063c6b11aa91461170f578063d09db67414611766578063d1c49b8b1461182c578063ddf24025146118f2578063e6f5d2d414611af8575b600080fd5b34801561017a57600080fd5b50610183611b4f565b604051808215151515815260200191505060405180910390f35b3480156101a957600080fd5b50610204600480360381019080803590602001908201803590602001908080601f0160208091040260200160405190810160405280939291908181526020018383808284378201915050505050509192919290505050611b66565b6040518080602001806020018681526020018573ffffffffffffffffffffffffffffffffffffffff1673ffffffffffffffffffffffffffffffffffffffff168152602001848152602001838103835288818151815260200191508051906020019080838360005b8381101561028657808201518184015260208101905061026b565b50505050905090810190601f1680156102b35780820380516001836020036101000a031916815260200191505b50838103825287818151815260200191508051906020019080838360005b838110156102ec5780820151818401526020810190506102d1565b50505050905090810190601f1680156103195780820380516001836020036101000a031916815260200191505b5097505050505050505060405180910390f35b34801561033857600080fd5b5061036d600480360381019080803573ffffffffffffffffffffffffffffffffffffffff169060200190929190505050611df8565b6040518082815260200191505060405180910390f35b34801561038f57600080fd5b506103c4600480360381019080803573ffffffffffffffffffffffffffffffffffffffff169060200190929190505050611e44565b6040518082815260200191505060405180910390f35b3480156103e657600080fd5b506104f7600480360381019080803590602001908201803590602001908080601f0160208091040260200160405190810160405280939291908181526020018383808284378201915050505050509192919290803590602001908201803590602001908080601f0160208091040260200160405190810160405280939291908181526020018383808284378201915050505050509192919290803590602001908201803590602001908080601f016020809104026020016040519081016040528093929190818152602001838380828437820191505050505050919291929080359060200190929190803573ffffffffffffffffffffffffffffffffffffffff169060200190929190505050611e90565b604051808215151515815260200191505060405180910390f35b34801561051d57600080fd5b50610578600480360381019080803590602001908201803590602001908080601f01602080910402602001604051908101604052809392919081815260200183838082843782019150505050505091929192905050506121dd565b604051808060200180602001806020018773ffffffffffffffffffffffffffffffffffffffff1673ffffffffffffffffffffffffffffffffffffffff168152602001806020018615151515815260200185810385528b818151815260200191508051906020019080838360005b838110156106005780820151818401526020810190506105e5565b50505050905090810190601f16801561062d5780820380516001836020036101000a031916815260200191505b5085810384528a818151815260200191508051906020019080838360005b8381101561066657808201518184015260208101905061064b565b50505050905090810190601f1680156106935780820380516001836020036101000a031916815260200191505b50858103835289818151815260200191508051906020019080838360005b838110156106cc5780820151818401526020810190506106b1565b50505050905090810190601f1680156106f95780820380516001836020036101000a031916815260200191505b50858103825287818151815260200191508051906020019080838360005b83811015610732578082015181840152602081019050610717565b50505050905090810190601f16801561075f5780820380516001836020036101000a031916815260200191505b509a505050505050505050505060405180910390f35b34801561078157600080fd5b50610892600480360381019080803590602001908201803590602001908080601f0160208091040260200160405190810160405280939291908181526020018383808284378201915050505050509192919290803590602001908201803590602001908080601f0160208091040260200160405190810160405280939291908181526020018383808284378201915050505050509192919290803573ffffffffffffffffffffffffffffffffffffffff16906020019092919080359060200190929190803590602001908201803590602001908080601f0160208091040260200160405190810160405280939291908181526020018383808284378201915050505050509192919290505050612528565b604051808215151515815260200191505060405180910390f35b3480156108b857600080fd5b50610a11600480360381019080803590602001908201803590602001908080601f0160208091040260200160405190810160405280939291908181526020018383808284378201915050505050509192919290803590602001908201803590602001908080601f0160208091040260200160405190810160405280939291908181526020018383808284378201915050505050509192919290803590602001908201803590602001908080601f0160208091040260200160405190810160405280939291908181526020018383808284378201915050505050509192919290803573ffffffffffffffffffffffffffffffffffffffff169060200190929190803590602001908201803590602001908080601f0160208091040260200160405190810160405280939291908181526020018383808284378201915050505050509192919290803515159060200190929190505050612865565b604051808215151515815260200191505060405180910390f35b348015610a3757600080fd5b50610a5660048036038101908080359060200190929190505050612b28565b6040518080602001828103825283818151815260200191508051906020019080838360005b83811015610a96578082015181840152602081019050610a7b565b50505050905090810190601f168015610ac35780820380516001836020036101000a031916815260200191505b509250505060405180910390f35b348015610add57600080fd5b50610b38600480360381019080803590602001908201803590602001908080601f0160208091040260200160405190810160405280939291908181526020018383808284378201915050505050509192919290505050612be3565b6040518080602001806020018673ffffffffffffffffffffffffffffffffffffffff1673ffffffffffffffffffffffffffffffffffffffff16815260200185815260200180602001848103845289818151815260200191508051906020019080838360005b83811015610bb8578082015181840152602081019050610b9d565b50505050905090810190601f168015610be55780820380516001836020036101000a031916815260200191505b50848103835288818151815260200191508051906020019080838360005b83811015610c1e578082015181840152602081019050610c03565b50505050905090810190601f168015610c4b5780820380516001836020036101000a031916815260200191505b50848103825285818151815260200191508051906020019080838360005b83811015610c84578082015181840152602081019050610c69565b50505050905090810190601f168015610cb15780820380516001836020036101000a031916815260200191505b509850505050505050505060405180910390f35b348015610cd157600080fd5b50610d10600480360381019080803573ffffffffffffffffffffffffffffffffffffffff16906020019092919080359060200190929190505050612e6b565b6040518080602001828103825283818151815260200191508051906020019080838360005b83811015610d50578082015181840152602081019050610d35565b50505050905090810190601f168015610d7d5780820380516001836020036101000a031916815260200191505b509250505060405180910390f35b348015610d9757600080fd5b50610da0612f64565b604051808215151515815260200191505060405180910390f35b348015610dc657600080fd5b50610dcf612f7b565b604051808215151515815260200191505060405180910390f35b348015610df557600080fd5b50610ee8600480360381019080803590602001908201803590602001908080601f0160208091040260200160405190810160405280939291908181526020018383808284378201915050505050509192919290803590602001908201803590602001908080601f0160208091040260200160405190810160405280939291908181526020018383808284378201915050505050509192919290803590602001908201803590602001908080601f0160208091040260200160405190810160405280939291908181526020018383808284378201915050505050509192919290803515159060200190929190505050612f92565b604051808215151515815260200191505060405180910390f35b348015610f0e57600080fd5b50610f69600480360381019080803590602001908201803590602001908080601f016020809104026020016040519081016040528093929190818152602001838380828437820191505050505050919291929050505061327b565b6040518080602001806020018060200180602001858103855289818151815260200191508051906020019080838360005b83811015610fb5578082015181840152602081019050610f9a565b50505050905090810190601f168015610fe25780820380516001836020036101000a031916815260200191505b50858103845288818151815260200191508051906020019080838360005b8381101561101b578082015181840152602081019050611000565b50505050905090810190601f1680156110485780820380516001836020036101000a031916815260200191505b50858103835287818151815260200191508051906020019080838360005b83811015611081578082015181840152602081019050611066565b50505050905090810190601f1680156110ae5780820380516001836020036101000a031916815260200191505b50858103825286818151815260200191508051906020019080838360005b838110156110e75780820151818401526020810190506110cc565b50505050905090810190601f1680156111145780820380516001836020036101000a031916815260200191505b509850505050505050505060405180910390f35b34801561113457600080fd5b5061113d613989565b604051808215151515815260200191505060405180910390f35b34801561116357600080fd5b5061116c6139a0565b6040518082815260200191505060405180910390f35b34801561118e57600080fd5b5061129f600480360381019080803590602001908201803590602001908080601f0160208091040260200160405190810160405280939291908181526020018383808284378201915050505050509192919290803590602001908201803590602001908080601f0160208091040260200160405190810160405280939291908181526020018383808284378201915050505050509192919290803573ffffffffffffffffffffffffffffffffffffffff169060200190929190803590602001908201803590602001908080601f0160208091040260200160405190810160405280939291908181526020018383808284378201915050505050509192919290803590602001909291905050506139ad565b604051808215151515815260200191505060405180910390f35b3480156112c557600080fd5b50611304600480360381019080803573ffffffffffffffffffffffffffffffffffffffff16906020019092919080359060200190929190505050613c22565b6040518080602001828103825283818151815260200191508051906020019080838360005b83811015611344578082015181840152602081019050611329565b50505050905090810190601f1680156113715780820380516001836020036101000a031916815260200191505b509250505060405180910390f35b34801561138b57600080fd5b5061149c600480360381019080803590602001908201803590602001908080601f0160208091040260200160405190810160405280939291908181526020018383808284378201915050505050509192919290803590602001908201803590602001908080601f0160208091040260200160405190810160405280939291908181526020018383808284378201915050505050509192919290803590602001908201803590602001908080601f016020809104026020016040519081016040528093929190818152602001838380828437820191505050505050919291929080359060200190929190803573ffffffffffffffffffffffffffffffffffffffff169060200190929190505050613d1b565b604051808215151515815260200191505060405180910390f35b3480156114c257600080fd5b5061151d600480360381019080803590602001908201803590602001908080601f0160208091040260200160405190810160405280939291908181526020018383808284378201915050505050509192919290505050614068565b604051808060200180602001806020018781526020018673ffffffffffffffffffffffffffffffffffffffff1673ffffffffffffffffffffffffffffffffffffffff16815260200185815260200184810384528a818151815260200191508051906020019080838360005b838110156115a3578082015181840152602081019050611588565b50505050905090810190601f1680156115d05780820380516001836020036101000a031916815260200191505b50848103835289818151815260200191508051906020019080838360005b838110156116095780820151818401526020810190506115ee565b50505050905090810190601f1680156116365780820380516001836020036101000a031916815260200191505b50848103825288818151815260200191508051906020019080838360005b8381101561166f578082015181840152602081019050611654565b50505050905090810190601f16801561169c5780820380516001836020036101000a031916815260200191505b50995050505050505050505060405180910390f35b3480156116bd57600080fd5b506116c6614308565b604051808215151515815260200191505060405180910390f35b3480156116ec57600080fd5b506116f561431f565b604051808215151515815260200191505060405180910390f35b34801561171b57600080fd5b50611750600480360381019080803573ffffffffffffffffffffffffffffffffffffffff169060200190929190505050614336565b6040518082815260200191505060405180910390f35b34801561177257600080fd5b506117b1600480360381019080803573ffffffffffffffffffffffffffffffffffffffff16906020019092919080359060200190929190505050614382565b6040518080602001828103825283818151815260200191508051906020019080838360005b838110156117f15780820151818401526020810190506117d6565b50505050905090810190601f16801561181e5780820380516001836020036101000a031916815260200191505b509250505060405180910390f35b34801561183857600080fd5b50611877600480360381019080803573ffffffffffffffffffffffffffffffffffffffff1690602001909291908035906020019092919050505061447b565b6040518080602001828103825283818151815260200191508051906020019080838360005b838110156118b757808201518184015260208101905061189c565b50505050905090810190601f1680156118e45780820380516001836020036101000a031916815260200191505b509250505060405180910390f35b3480156118fe57600080fd5b50611959600480360381019080803590602001908201803590602001908080601f0160208091040260200160405190810160405280939291908181526020018383808284378201915050505050509192919290505050614574565b604051808060200180602001881515151581526020018773ffffffffffffffffffffffffffffffffffffffff1673ffffffffffffffffffffffffffffffffffffffff1681526020018060200186815260200185815260200184810384528b818151815260200191508051906020019080838360005b838110156119e95780820151818401526020810190506119ce565b50505050905090810190601f168015611a165780820380516001836020036101000a031916815260200191505b5084810383528a818151815260200191508051906020019080838360005b83811015611a4f578082015181840152602081019050611a34565b50505050905090810190601f168015611a7c5780820380516001836020036101000a031916815260200191505b50848103825287818151815260200191508051906020019080838360005b83811015611ab5578082015181840152602081019050611a9a565b50505050905090810190601f168015611ae25780820380516001836020036101000a031916815260200191505b509a505050505050505050505060405180910390f35b348015611b0457600080fd5b50611b39600480360381019080803573ffffffffffffffffffffffffffffffffffffffff16906020019092919050505061483f565b6040518082815260200191505060405180910390f35b6000600360009054906101000a900460ff16905090565b6060806000806000611b76614a8b565b6060600080600060028b6040518082805190602001908083835b602083101515611bb55780518252602082019150602081019050602083039250611b90565b6001836020036101000a038019825116818451168082178552505050505050905001915050908152602001604051809103902060c06040519081016040529081600082018054600181600116156101000203166002900480601f016020809104026020016040519081016040528092919081815260200182805460018160011615610100020316600290048015611c8d5780601f10611c6257610100808354040283529160200191611c8d565b820191906000526020600020905b815481529060010190602001808311611c7057829003601f168201915b5050505050815260200160018201548152602001600282018054600181600116156101000203166002900480601f016020809104026020016040519081016040528092919081815260200182805460018160011615610100020316600290048015611d395780601f10611d0e57610100808354040283529160200191611d39565b820191906000526020600020905b815481529060010190602001808311611d1c57829003601f168201915b505050505081526020016003820160009054906101000a900473ffffffffffffffffffffffffffffffffffffffff1673ffffffffffffffffffffffffffffffffffffffff1673ffffffffffffffffffffffffffffffffffffffff168152602001600482015481526020016005820160009054906101000a900460ff1615151515815250509450846000015193508460200151925084606001519150846080015190508a8484848499509950995099509950505050505091939590929450565b6000600d60008373ffffffffffffffffffffffffffffffffffffffff1673ffffffffffffffffffffffffffffffffffffffff168152602001908152602001600020805490509050919050565b6000600a60008373ffffffffffffffffffffffffffffffffffffffff1673ffffffffffffffffffffffffffffffffffffffff168152602001908152602001600020805490509050919050565b6000611e9a614a8b565b60c0604051908101604052808781526020018581526020018681526020018473ffffffffffffffffffffffffffffffffffffffff168152602001858152602001600115158152509050600015156002886040518082805190602001908083835b602083101515611f1f5780518252602082019150602081019050602083039250611efa565b6001836020036101000a038019825116818451168082178552505050505050905001915050908152602001604051809103902060050160009054906101000a900460ff161515148015611fe05750836000876040518082805190602001908083835b602083101515611fa65780518252602082019150602081019050602083039250611f81565b6001836020036101000a03801982511681845116808217855250505050505090500191505090815260200160405180910390206004015410155b156121b357806002886040518082805190602001908083835b60208310151561201e5780518252602082019150602081019050602083039250611ff9565b6001836020036101000a0380198251168184511680821785525050505050509050019150509081526020016040518091039020600082015181600001908051906020019061206d929190614ada565b50602082015181600101556040820151816002019080519060200190612094929190614ada565b5060608201518160030160006101000a81548173ffffffffffffffffffffffffffffffffffffffff021916908373ffffffffffffffffffffffffffffffffffffffff1602179055506080820151816004015560a08201518160050160006101000a81548160ff021916908315150217905550905050836000876040518082805190602001908083835b602083101515612142578051825260208201915060208101905060208303925061211d565b6001836020036101000a0380198251168184511680821785525050505050509050019150509081526020016040518091039020600401600082825403925050819055506001600360006101000a81548160ff0219169083151502179055506121aa838861488b565b600191506121d3565b6000600360006101000a81548160ff021916908315150217905550600091505b5095945050505050565b60608060606000606060006121f0614b5a565b606080600060606000600b8d6040518082805190602001908083835b602083101515612231578051825260208201915060208101905060208303925061220c565b6001836020036101000a038019825116818451168082178552505050505050905001915050908152602001604051809103902060c06040519081016040529081600082018054600181600116156101000203166002900480601f0160208091040260200160405190810160405280929190818152602001828054600181600116156101000203166002900480156123095780601f106122de57610100808354040283529160200191612309565b820191906000526020600020905b8154815290600101906020018083116122ec57829003601f168201915b50505050508152602001600182018054600181600116156101000203166002900480601f0160208091040260200160405190810160405280929190818152602001828054600181600116156101000203166002900480156123ab5780601f10612380576101008083540402835291602001916123ab565b820191906000526020600020905b81548152906001019060200180831161238e57829003601f168201915b505050505081526020016002820160009054906101000a900473ffffffffffffffffffffffffffffffffffffffff1673ffffffffffffffffffffffffffffffffffffffff1673ffffffffffffffffffffffffffffffffffffffff168152602001600382018054600181600116156101000203166002900480601f0160208091040260200160405190810160405280929190818152602001828054600181600116156101000203166002900480156124a35780601f10612478576101008083540402835291602001916124a3565b820191906000526020600020905b81548152906001019060200180831161248657829003601f168201915b505050505081526020016004820160009054906101000a900460ff161515151581526020016004820160019054906101000a900460ff161515151581525050955085600001519450856020015193508560400151925085606001519150856080015190508c85858585859b509b509b509b509b509b5050505050505091939550919395565b6000612532614bab565b60a0604051908101604052808781526020018673ffffffffffffffffffffffffffffffffffffffff168152602001858152602001848152602001600115158152509050600015156008886040518082805190602001908083835b6020831015156125b1578051825260208201915060208101905060208303925061258c565b6001836020036101000a038019825116818451168082178552505050505050905001915050908152602001604051809103902060040160009054906101000a900460ff1615151480156126725750836005876040518082805190602001908083835b6020831015156126385780518252602082019150602081019050602083039250612613565b6001836020036101000a03801982511681845116808217855250505050505090500191505090815260200160405180910390206004015410155b1561283b57806008886040518082805190602001908083835b6020831015156126b0578051825260208201915060208101905060208303925061268b565b6001836020036101000a038019825116818451168082178552505050505050905001915050908152602001604051809103902060008201518160000190805190602001906126ff929190614ada565b5060208201518160010160006101000a81548173ffffffffffffffffffffffffffffffffffffffff021916908373ffffffffffffffffffffffffffffffffffffffff16021790555060408201518160020155606082015181600301908051906020019061276d929190614ada565b5060808201518160040160006101000a81548160ff021916908315150217905550905050836005876040518082805190602001908083835b6020831015156127ca57805182526020820191506020810190506020830392506127a5565b6001836020036101000a0380198251168184511680821785525050505050509050019150509081526020016040518091039020600401600082825403925050819055506001600960006101000a81548160ff021916908315150217905550612832858861490b565b6001915061285b565b6000600960006101000a81548160ff021916908315150217905550600091505b5095945050505050565b600061286f614b5a565b60c0604051908101604052808881526020018781526020018673ffffffffffffffffffffffffffffffffffffffff16815260200185815260200160001515815260200160011515815250905060001515600b896040518082805190602001908083835b6020831015156128f757805182526020820191506020810190506020830392506128d2565b6001836020036101000a038019825116818451168082178552505050505050905001915050908152602001604051809103902060040160019054906101000a900460ff1615151415612afd5780600b896040518082805190602001908083835b60208310151561297c5780518252602082019150602081019050602083039250612957565b6001836020036101000a038019825116818451168082178552505050505050905001915050908152602001604051809103902060008201518160000190805190602001906129cb929190614ada565b5060208201518160010190805190602001906129e8929190614ada565b5060408201518160020160006101000a81548173ffffffffffffffffffffffffffffffffffffffff021916908373ffffffffffffffffffffffffffffffffffffffff1602179055506060820151816003019080519060200190612a4c929190614ada565b5060808201518160040160006101000a81548160ff02191690831515021790555060a08201518160040160016101000a81548160ff0219169083151502179055509050506001600c60006101000a81548160ff021916908315150217905550612ab5858961498b565b6010889080600181540180825580915050906001820390600052602060002001600090919290919091509080519060200190612af2929190614bf3565b505060019150612b1d565b6000600c60006101000a81548160ff021916908315150217905550600091505b509695505050505050565b6060601082815481101515612b3957fe5b906000526020600020018054600181600116156101000203166002900480601f016020809104026020016040519081016040528092919081815260200182805460018160011615610100020316600290048015612bd75780601f10612bac57610100808354040283529160200191612bd7565b820191906000526020600020905b815481529060010190602001808311612bba57829003601f168201915b50505050509050919050565b6060806000806060612bf3614bab565b6060600080606060088b6040518082805190602001908083835b602083101515612c325780518252602082019150602081019050602083039250612c0d565b6001836020036101000a038019825116818451168082178552505050505050905001915050908152602001604051809103902060a06040519081016040529081600082018054600181600116156101000203166002900480601f016020809104026020016040519081016040528092919081815260200182805460018160011615610100020316600290048015612d0a5780601f10612cdf57610100808354040283529160200191612d0a565b820191906000526020600020905b815481529060010190602001808311612ced57829003601f168201915b505050505081526020016001820160009054906101000a900473ffffffffffffffffffffffffffffffffffffffff1673ffffffffffffffffffffffffffffffffffffffff1673ffffffffffffffffffffffffffffffffffffffff16815260200160028201548152602001600382018054600181600116156101000203166002900480601f016020809104026020016040519081016040528092919081815260200182805460018160011615610100020316600290048015612e0c5780601f10612de157610100808354040283529160200191612e0c565b820191906000526020600020905b815481529060010190602001808311612def57829003601f168201915b505050505081526020016004820160009054906101000a900460ff1615151515815250509450846000015193508460200151925084604001519150846060015190508a8484848499509950995099509950505050505091939590929450565b6060600d60008473ffffffffffffffffffffffffffffffffffffffff1673ffffffffffffffffffffffffffffffffffffffff16815260200190815260200160002082815481101515612eb957fe5b906000526020600020018054600181600116156101000203166002900480601f016020809104026020016040519081016040528092919081815260200182805460018160011615610100020316600290048015612f575780601f10612f2c57610100808354040283529160200191612f57565b820191906000526020600020905b815481529060010190602001808311612f3a57829003601f168201915b5050505050905092915050565b6000600160009054906101000a900460ff16905090565b6000600f60009054906101000a900460ff16905090565b6000612f9c614c73565b606060405190810160405280868152602001841515815260200160011515815250905060001515600e876040518082805190602001908083835b602083101515612ffb5780518252602082019150602081019050602083039250612fd6565b6001836020036101000a038019825116818451168082178552505050505050905001915050908152602001604051809103902060010160019054906101000a900460ff1615151415613252576001600b876040518082805190602001908083835b602083101515613081578051825260208201915060208101905060208303925061305c565b6001836020036101000a038019825116818451168082178552505050505050905001915050908152602001604051809103902060040160006101000a81548160ff02191690831515021790555080600e876040518082805190602001908083835b60208310151561310757805182526020820191506020810190506020830392506130e2565b6001836020036101000a03801982511681845116808217855250505050505090500191505090815260200160405180910390206000820151816000019080519060200190613156929190614ada565b5060208201518160010160006101000a81548160ff02191690831515021790555060408201518160010160016101000a81548160ff02191690831515021790555090505060011515831515141561322e57600080856040518082805190602001908083835b6020831015156131e057805182526020820191506020810190506020830392506131bb565b6001836020036101000a038019825116818451168082178552505050505050905001915050908152602001604051809103902060010160006101000a81548160ff0219169083151502179055505b6001600f60006101000a81548160ff02191690831515021790555060019150613272565b6000600f60006101000a81548160ff021916908315150217905550600091505b50949350505050565b606080606080613289614bab565b6060613293614c99565b606061329d614a8b565b606060088b6040518082805190602001908083835b6020831015156132d757805182526020820191506020810190506020830392506132b2565b6001836020036101000a038019825116818451168082178552505050505050905001915050908152602001604051809103902060a06040519081016040529081600082018054600181600116156101000203166002900480601f0160208091040260200160405190810160405280929190818152602001828054600181600116156101000203166002900480156133af5780601f10613384576101008083540402835291602001916133af565b820191906000526020600020905b81548152906001019060200180831161339257829003601f168201915b505050505081526020016001820160009054906101000a900473ffffffffffffffffffffffffffffffffffffffff1673ffffffffffffffffffffffffffffffffffffffff1673ffffffffffffffffffffffffffffffffffffffff16815260200160028201548152602001600382018054600181600116156101000203166002900480601f0160208091040260200160405190810160405280929190818152602001828054600181600116156101000203166002900480156134b15780601f10613486576101008083540402835291602001916134b1565b820191906000526020600020905b81548152906001019060200180831161349457829003601f168201915b505050505081526020016004820160009054906101000a900460ff1615151515815250509550856000015194506005856040518082805190602001908083835b60208310151561351657805182526020820191506020810190506020830392506134f1565b6001836020036101000a038019825116818451168082178552505050505050905001915050908152602001604051809103902060c06040519081016040529081600082018054600181600116156101000203166002900480601f0160208091040260200160405190810160405280929190818152602001828054600181600116156101000203166002900480156135ee5780601f106135c3576101008083540402835291602001916135ee565b820191906000526020600020905b8154815290600101906020018083116135d157829003601f168201915b50505050508152602001600182018054600181600116156101000203166002900480601f0160208091040260200160405190810160405280929190818152602001828054600181600116156101000203166002900480156136905780601f1061366557610100808354040283529160200191613690565b820191906000526020600020905b81548152906001019060200180831161367357829003601f168201915b50505050508152602001600282015481526020016003820160009054906101000a900473ffffffffffffffffffffffffffffffffffffffff1673ffffffffffffffffffffffffffffffffffffffff1673ffffffffffffffffffffffffffffffffffffffff168152602001600482015481526020016005820160009054906101000a900460ff1615151515815250509350836000015192506002836040518082805190602001908083835b60208310151561375f578051825260208201915060208101905060208303925061373a565b6001836020036101000a038019825116818451168082178552505050505050905001915050908152602001604051809103902060c06040519081016040529081600082018054600181600116156101000203166002900480601f0160208091040260200160405190810160405280929190818152602001828054600181600116156101000203166002900480156138375780601f1061380c57610100808354040283529160200191613837565b820191906000526020600020905b81548152906001019060200180831161381a57829003601f168201915b5050505050815260200160018201548152602001600282018054600181600116156101000203166002900480601f0160208091040260200160405190810160405280929190818152602001828054600181600116156101000203166002900480156138e35780601f106138b8576101008083540402835291602001916138e3565b820191906000526020600020905b8154815290600101906020018083116138c657829003601f168201915b505050505081526020016003820160009054906101000a900473ffffffffffffffffffffffffffffffffffffffff1673ffffffffffffffffffffffffffffffffffffffff1673ffffffffffffffffffffffffffffffffffffffff168152602001600482015481526020016005820160009054906101000a900460ff1615151515815250509150816000015190508a85848399509950995099505050505050509193509193565b6000600660009054906101000a900460ff16905090565b6000601080549050905090565b60006139b7614ce8565b60e0604051908101604052808781526020016001151581526020018673ffffffffffffffffffffffffffffffffffffffff168152602001858152602001848152602001848152602001600115158152509050600015156000886040518082805190602001908083835b602083101515613a455780518252602082019150602081019050602083039250613a20565b6001836020036101000a038019825116818451168082178552505050505050905001915050908152602001604051809103902060050160009054906101000a900460ff1615151415613bf857806000886040518082805190602001908083835b602083101515613aca5780518252602082019150602081019050602083039250613aa5565b6001836020036101000a03801982511681845116808217855250505050505090500191505090815260200160405180910390206000820151816000019080519060200190613b19929190614ada565b5060208201518160010160006101000a81548160ff02191690831515021790555060408201518160010160016101000a81548173ffffffffffffffffffffffffffffffffffffffff021916908373ffffffffffffffffffffffffffffffffffffffff1602179055506060820151816002019080519060200190613b9d929190614ada565b506080820151816003015560a0820151816004015560c08201518160050160006101000a81548160ff02191690831515021790555090505060018060006101000a81548160ff02191690831515021790555060019150613c18565b6000600160006101000a81548160ff021916908315150217905550600091505b5095945050505050565b6060600a60008473ffffffffffffffffffffffffffffffffffffffff1673ffffffffffffffffffffffffffffffffffffffff16815260200190815260200160002082815481101515613c7057fe5b906000526020600020018054600181600116156101000203166002900480601f016020809104026020016040519081016040528092919081815260200182805460018160011615610100020316600290048015613d0e5780601f10613ce357610100808354040283529160200191613d0e565b820191906000526020600020905b815481529060010190602001808311613cf157829003601f168201915b5050505050905092915050565b6000613d25614c99565b60c0604051908101604052808781526020018681526020018581526020018473ffffffffffffffffffffffffffffffffffffffff168152602001858152602001600115158152509050600015156005886040518082805190602001908083835b602083101515613daa5780518252602082019150602081019050602083039250613d85565b6001836020036101000a038019825116818451168082178552505050505050905001915050908152602001604051809103902060050160009054906101000a900460ff161515148015613e6b5750836002876040518082805190602001908083835b602083101515613e315780518252602082019150602081019050602083039250613e0c565b6001836020036101000a03801982511681845116808217855250505050505090500191505090815260200160405180910390206004015410155b1561403e57806005886040518082805190602001908083835b602083101515613ea95780518252602082019150602081019050602083039250613e84565b6001836020036101000a03801982511681845116808217855250505050505090500191505090815260200160405180910390206000820151816000019080519060200190613ef8929190614ada565b506020820151816001019080519060200190613f15929190614ada565b506040820151816002015560608201518160030160006101000a81548173ffffffffffffffffffffffffffffffffffffffff021916908373ffffffffffffffffffffffffffffffffffffffff1602179055506080820151816004015560a08201518160050160006101000a81548160ff021916908315150217905550905050836002876040518082805190602001908083835b602083101515613fcd5780518252602082019150602081019050602083039250613fa8565b6001836020036101000a0380198251168184511680821785525050505050509050019150509081526020016040518091039020600401600082825403925050819055506001600660006101000a81548160ff0219169083151502179055506140358388614a0b565b6001915061405e565b6000600660006101000a81548160ff021916908315150217905550600091505b5095945050505050565b6060806060600080600061407a614c99565b606080600080600060058d6040518082805190602001908083835b6020831015156140ba5780518252602082019150602081019050602083039250614095565b6001836020036101000a038019825116818451168082178552505050505050905001915050908152602001604051809103902060c06040519081016040529081600082018054600181600116156101000203166002900480601f0160208091040260200160405190810160405280929190818152602001828054600181600116156101000203166002900480156141925780601f1061416757610100808354040283529160200191614192565b820191906000526020600020905b81548152906001019060200180831161417557829003601f168201915b50505050508152602001600182018054600181600116156101000203166002900480601f0160208091040260200160405190810160405280929190818152602001828054600181600116156101000203166002900480156142345780601f1061420957610100808354040283529160200191614234565b820191906000526020600020905b81548152906001019060200180831161421757829003601f168201915b50505050508152602001600282015481526020016003820160009054906101000a900473ffffffffffffffffffffffffffffffffffffffff1673ffffffffffffffffffffffffffffffffffffffff1673ffffffffffffffffffffffffffffffffffffffff168152602001600482015481526020016005820160009054906101000a900460ff161515151581525050955085600001519450856020015193508560400151925085606001519150856080015190508c85858585859b509b509b509b509b509b5050505050505091939550919395565b6000600c60009054906101000a900460ff16905090565b6000600960009054906101000a900460ff16905090565b6000600760008373ffffffffffffffffffffffffffffffffffffffff1673ffffffffffffffffffffffffffffffffffffffff168152602001908152602001600020805490509050919050565b6060600760008473ffffffffffffffffffffffffffffffffffffffff1673ffffffffffffffffffffffffffffffffffffffff168152602001908152602001600020828154811015156143d057fe5b906000526020600020018054600181600116156101000203166002900480601f01602080910402602001604051908101604052809291908181526020018280546001816001161561010002031660029004801561446e5780601f106144435761010080835404028352916020019161446e565b820191906000526020600020905b81548152906001019060200180831161445157829003601f168201915b5050505050905092915050565b6060600460008473ffffffffffffffffffffffffffffffffffffffff1673ffffffffffffffffffffffffffffffffffffffff168152602001908152602001600020828154811015156144c957fe5b906000526020600020018054600181600116156101000203166002900480601f0160208091040260200160405190810160405280929190818152602001828054600181600116156101000203166002900480156145675780601f1061453c57610100808354040283529160200191614567565b820191906000526020600020905b81548152906001019060200180831161454a57829003601f168201915b5050505050905092915050565b6060806000806060600080614587614ce8565b6060600080606060008060008f6040518082805190602001908083835b6020831015156145c957805182526020820191506020810190506020830392506145a4565b6001836020036101000a038019825116818451168082178552505050505050905001915050908152602001604051809103902060e06040519081016040529081600082018054600181600116156101000203166002900480601f0160208091040260200160405190810160405280929190818152602001828054600181600116156101000203166002900480156146a15780601f10614676576101008083540402835291602001916146a1565b820191906000526020600020905b81548152906001019060200180831161468457829003601f168201915b505050505081526020016001820160009054906101000a900460ff161515151581526020016001820160019054906101000a900473ffffffffffffffffffffffffffffffffffffffff1673ffffffffffffffffffffffffffffffffffffffff1673ffffffffffffffffffffffffffffffffffffffff168152602001600282018054600181600116156101000203166002900480601f0160208091040260200160405190810160405280929190818152602001828054600181600116156101000203166002900480156147b45780601f10614789576101008083540402835291602001916147b4565b820191906000526020600020905b81548152906001019060200180831161479757829003601f168201915b5050505050815260200160038201548152602001600482015481526020016005820160009054906101000a900460ff161515151581525050965086600001519550866020015194508660400151935086606001519250866080015191508660a0015190508e8686868686869d509d509d509d509d509d509d5050505050505050919395979092949650565b6000600460008373ffffffffffffffffffffffffffffffffffffffff1673ffffffffffffffffffffffffffffffffffffffff168152602001908152602001600020805490509050919050565b600460008373ffffffffffffffffffffffffffffffffffffffff1673ffffffffffffffffffffffffffffffffffffffff168152602001908152602001600020819080600181540180825580915050906001820390600052602060002001600090919290919091509080519060200190614905929190614bf3565b50505050565b600a60008373ffffffffffffffffffffffffffffffffffffffff1673ffffffffffffffffffffffffffffffffffffffff168152602001908152602001600020819080600181540180825580915050906001820390600052602060002001600090919290919091509080519060200190614985929190614bf3565b50505050565b600d60008373ffffffffffffffffffffffffffffffffffffffff1673ffffffffffffffffffffffffffffffffffffffff168152602001908152602001600020819080600181540180825580915050906001820390600052602060002001600090919290919091509080519060200190614a05929190614bf3565b50505050565b600760008373ffffffffffffffffffffffffffffffffffffffff1673ffffffffffffffffffffffffffffffffffffffff168152602001908152602001600020819080600181540180825580915050906001820390600052602060002001600090919290919091509080519060200190614a85929190614bf3565b50505050565b60c060405190810160405280606081526020016000815260200160608152602001600073ffffffffffffffffffffffffffffffffffffffff168152602001600081526020016000151581525090565b828054600181600116156101000203166002900490600052602060002090601f016020900481019282601f10614b1b57805160ff1916838001178555614b49565b82800160010185558215614b49579182015b82811115614b48578251825591602001919060010190614b2d565b5b509050614b569190614d40565b5090565b60c0604051908101604052806060815260200160608152602001600073ffffffffffffffffffffffffffffffffffffffff168152602001606081526020016000151581526020016000151581525090565b60a06040519081016040528060608152602001600073ffffffffffffffffffffffffffffffffffffffff16815260200160008152602001606081526020016000151581525090565b828054600181600116156101000203166002900490600052602060002090601f016020900481019282601f10614c3457805160ff1916838001178555614c62565b82800160010185558215614c62579182015b82811115614c61578251825591602001919060010190614c46565b5b509050614c6f9190614d40565b5090565b606060405190810160405280606081526020016000151581526020016000151581525090565b60c060405190810160405280606081526020016060815260200160008152602001600073ffffffffffffffffffffffffffffffffffffffff168152602001600081526020016000151581525090565b60e06040519081016040528060608152602001600015158152602001600073ffffffffffffffffffffffffffffffffffffffff1681526020016060815260200160008152602001600081526020016000151581525090565b614d6291905b80821115614d5e576000816000905550600101614d46565b5090565b905600a165627a7a72305820fe363ebed4fe8894ed21c376d42b050d06cdd0eefa636c5cff44798c020509030029",
  "source": "pragma solidity ^0.4.0;\ncontract DrugTracer {\n\n    //------------------------\n\n    //\n    struct ProduceDetail {\n        string  drug;           //\n        bool    state;          //\n        address producerCode;   //\n        string  produceDate;    //\n        uint    volume;         //\n        uint    left;           //\n        bool    isValid;\n    }\n\n    //\n    mapping (string => ProduceDetail) produceList;\n    bool stateProduce = true;\n\n    //\n    struct InflowDetail {\n        string  drugCode;   //\n        uint    volume;     //\n        string  inflowDate; //\n        address toMerchant; //\n        uint    left;       //\n        bool    isValid;\n    }\n\n    //\n    mapping (string => InflowDetail) inflowList;\n    bool stateInflow = true;\n\n    //\n    mapping (address => string[]) simpleInflowList;\n\n    //---------------------------\n\n    //\n    struct RollDetail {\n        string  inflowNumber;   //\n        string  circulateDate;  //\n        uint    volume;         //\n        address toDrugstore;    //\n        uint    left;           //\n        bool    isValid;\n    }\n\n    //\n    mapping (string=>RollDetail) rollList;\n    bool stateRoll = true;\n\n    //\n    mapping (address=>string[]) simpleRollList;\n\n    //-------------------------\n\n    //\n    struct SaleDetail {\n        string  circulateNumber;    //\n        address customerNumber;     //\n        uint    volume;             //\n        string  saleDate;           //\n        bool    isValid;\n    }\n\n    //\n    mapping (string=>SaleDetail) saleList;\n    bool stateSale = true;\n\n    //\n    mapping (address=>string[]) simpleSaleList;\n\n    //---------------------------\n\n    //\n    struct ReportDetail {\n        string  saleNumber; //\n        string  reportDate; //\n        address reporter;   //\n        string  report;     //\n        bool    state;      //\n        bool    isValid;\n    }\n\n    //\n    mapping (string=>ReportDetail) reportList;\n    bool stateReport = true;\n\n    //\n    mapping (address=>string[]) simpleReportList;\n    //-------------------------\n\n    //\n    struct DealDetail {\n        string  dealDate;   //\n        bool    result;     //\n        bool    isValid;\n    }\n\n    //\n    mapping (string=>DealDetail) dealList;\n    bool stateDeal = true;\n\n    //\n    string[] reports;\n    \n    //------set--------------------\n\n    //statetrue\n    //drugCode:\n    //drug:\n    //producer:\n    //produceDate:\n    //volume:\n    //return:truefalse\n    function setProduce (\n                        string drugCode,\n                        string drug,\n                        address producer,\n                        string produceDate,\n                        uint volume)\n                        public returns (bool) {\n        ProduceDetail memory drugInfo = ProduceDetail(drug, true, producer, produceDate, volume, volume, true);\n        if (produceList[drugCode].isValid == false) {\n            produceList[drugCode] = drugInfo;\n            stateProduce = true;\n            return true;\n        }\n        else {\n            stateProduce = false;\n            return false;\n        }\n    }\n    \n    //hash\n    //number:\n    //drugCode:\n    //volume:\n    //toMerchant:\n    //return:truefalse\n    function setInflow (\n                        string number,\n                        string drugCode,\n                        string inflowDate,\n                        uint volume,\n                        address toMerchant)\n                        public returns (bool) {\n        InflowDetail memory inflowInfo = InflowDetail(drugCode, volume, inflowDate, toMerchant, volume, true);//\n        if (inflowList[number].isValid == false && produceList[drugCode].left >= volume) {\n            inflowList[number] = inflowInfo;\n            produceList[drugCode].left -= volume;\n            stateInflow = true;\n            setSimpleInflow(toMerchant, number);\n            return true;\n        }\n        else {\n            stateInflow = false;\n            return false;\n        }\n    }\n\n    //\n    //to:\n    //number:\n    function setSimpleInflow (\n                                address to,\n                                string number)\n                                internal {\n        simpleInflowList[to].push(number);\n    }\n\n    //------set---------------------\n    \n    //hash\n    //number:\n    //inflowNumber:\n    //circulateDate:\n    //volume:\n    //toDrugStore:\n    //return:\n    function setRoll (\n                        string number,\n                        string inflowNumber,\n                        string circulateDate,\n                        uint volume,\n                        address toDrugstore)\n                        public returns (bool) {\n        RollDetail memory rollInfo = RollDetail(inflowNumber, circulateDate, volume, toDrugstore, volume, true);\n        if (rollList[number].isValid == false && inflowList[inflowNumber].left >= volume) {\n            rollList[number] = rollInfo;\n            inflowList[inflowNumber].left -= volume;\n            stateRoll = true;\n            setSimpleRoll(toDrugstore, number);\n            return true;\n        }\n        else {\n            stateRoll = false;\n            return false;\n        }\n    }\n\n    //\n    //to:\n    //number:\n    function setSimpleRoll (\n                            address to,\n                            string number)\n                            internal {\n        simpleRollList[to].push(number);\n    }\n\n    //------set-----------------------\n\n    //hash\n    //number:\n    //circulateNumber:\n    //customerNumber:\n    //volume:\n    //saleDate:\n    //return:truefalse\n    function setSale (\n                        string number,\n                        string circulateNumber,\n                        address customerNumber,\n                        uint volume,\n                        string saleDate)\n                        public returns (bool) {\n        SaleDetail memory saleInfo = SaleDetail(circulateNumber, customerNumber, volume, saleDate, true);\n        if (saleList[number].isValid == false && rollList[circulateNumber].left >= volume) {\n            saleList[number] = saleInfo;\n            rollList[circulateNumber].left -= volume;\n            stateSale = true;\n            setSimpleSale(customerNumber, number);\n            return true;\n        }\n        else {\n            stateSale = false;\n            return false;\n        }\n    }\n\n    //\n    //to:\n    //number:\n    function setSimpleSale(\n                            address to,\n                            string number)\n                            internal {\n        simpleSaleList[to].push(number);\n    }\n\n    //------set------------------------\n\n    //hashfalse\n    //number:\n    //saleNumber:\n    //reportDate:\n    //report:\n    //state:falsetrue\n    //return:truefalse\n    function setReport (\n                        string number,\n                        string saleNumber,\n                        string reportDate,\n                        address reporter,\n                        string report,\n                        bool state)\n                        public returns (bool) {\n        ReportDetail memory reportInfo = ReportDetail(saleNumber, reportDate, reporter, report, false, true);\n        if (reportList[number].isValid == false) {\n            reportList[number] = reportInfo;\n            stateReport = true;\n            setSimpleReport(reporter, number);\n            reports.push(number);\n            return true;\n        }\n        else {\n            stateReport = false;\n            return false;\n        }\n    }\n\n    //\n    //to:\n    //number:\n    function setSimpleReport (\n                                address to,\n                                string number)\n                                internal {\n        simpleReportList[to].push(number);\n    }\n    \n    //------set----------------------------\n\n    //true\n    //number:\n    //dealDate:\n    //result:\n    //return:truefalse\n    function setDeal (\n                        string number,\n                        string dealDate,\n                        string drugCode,\n                        bool result)\n                        public returns (bool) {\n        DealDetail memory dealInfo = DealDetail(dealDate, result, true);\n        if (dealList[number].isValid == false) {\n            reportList[number].state = true;\n            dealList[number] = dealInfo;\n            if (result == true) {\n                //\n                produceList[drugCode].state = false;\n            }\n            stateDeal = true;\n           return true;\n        }\n        else {\n            stateDeal = false;\n            return false;\n        }\n    }\n\n    //------get\n\n    //ProduceDetail\n    //drugCode:\n    //return:string\n    function getProduce (string drugCode) public view returns ( string,\n                                                                string,\n                                                                bool,\n                                                                address,\n                                                                string,\n                                                                uint,\n                                                                uint) {\n        ProduceDetail memory tmpProduce = produceList[drugCode];\n        string memory tmpDrug = tmpProduce.drug;\n        bool tmpState = tmpProduce.state;\n        address tmpProducerCode = tmpProduce.producerCode;\n        string memory tmpProduceDate = tmpProduce.produceDate;\n        uint tmpVolume = tmpProduce.volume;\n        uint tmpLeft = tmpProduce.left;\n        return (drugCode, tmpDrug, tmpState, tmpProducerCode, tmpProduceDate, tmpVolume, tmpLeft);\n    }\n\n    //InflowDetail\n    //number:\n    //return:string\n    function getInflow (string number) public view returns ( string,\n                                                        string,\n                                                        uint,\n                                                        address,\n                                                        uint) {\n        InflowDetail memory tmpInflow = inflowList[number];\n        string memory tmpDrugCode = tmpInflow.drugCode;\n        uint tmpVolume = tmpInflow.volume;\n        address tmpToMerchant = tmpInflow.toMerchant;\n        uint tmpLeft = tmpInflow.left;\n        return (number, tmpDrugCode, tmpVolume, tmpToMerchant, tmpLeft);\n    }\n\n    function getLengthInflow (address to) public view returns (uint) {\n        return simpleInflowList[to].length;\n    }\n\n    function getNextInflow (address to, uint offset) public view returns (string) {\n        return simpleInflowList[to][offset];\n    }\n\n\n    //setProduce\n    //return:truefalse\n    function getStateProduce () public view returns (bool) {\n        return stateProduce;\n    }\n\n    //setInflow\n    //return:truefalse\n    function getStateInflow () public view returns (bool) {\n        return stateInflow;\n    }\n\n    //------get\n\n    //RollDetail\n    //number:\n    //string:string\n    function getRoll (string number) public view returns (   string,\n                                                        string,\n                                                        string,\n                                                        uint,\n                                                        address,\n                                                        uint) {\n        RollDetail memory rollInfo = rollList[number];\n        string memory tmpInflowNumber = rollInfo.inflowNumber;\n        string memory tmpCirculateDate = rollInfo.circulateDate;\n        uint tmpVolume = rollInfo.volume;\n        address tmpToDrugstore = rollInfo.toDrugstore;\n        uint tmpLeft = rollInfo.left;\n        return (number, tmpInflowNumber, tmpCirculateDate, tmpVolume, tmpToDrugstore, tmpLeft);\n    }\n\n\n    function getLengthRoll (address to) public view returns (uint) {\n        return simpleRollList[to].length;\n    }\n\n    function getNextRoll (address to, uint offset) public view returns (string) {\n        return simpleRollList[to][offset];\n    }\n\n    //setRoll\n    //return:truefalse\n    function getStateRoll () public view returns (bool) {\n        return stateRoll;\n    }\n\n    //------get\n\n    //SaleDetail\n    //number:\n    //string:string\n    function getSale (string number) public view returns (   string,\n                                                        string,\n                                                        address,\n                                                        uint,\n                                                        string) {\n        SaleDetail memory saleInfo = saleList[number];\n        string memory tmpCirculateNumber = saleInfo.circulateNumber;\n        address tmpCustomerNumber = saleInfo.customerNumber;\n        uint tmpVolume = saleInfo.volume;\n        string memory tmpSaleDate = saleInfo.saleDate;\n        return (number, tmpCirculateNumber, tmpCustomerNumber, tmpVolume, tmpSaleDate);\n    }\n\n    function getLengthSale (address to) public view returns (uint) {\n        return simpleSaleList[to].length;\n    }\n\n    function getNextSale (address to, uint offset) public view returns (string) {\n        return simpleSaleList[to][offset];\n    }\n\n    //setSale\n    //return:truefalse\n    function getStateSale () public view returns (bool) {\n        return stateSale;\n    }\n\n    //------get\n\n    //\n    //number:\n    //string:string\n    function getReport (string number) public view returns ( string,\n                                                        string,\n                                                        string,\n                                                        address,\n                                                        string,\n                                                        bool) {\n        ReportDetail memory reportInfo = reportList[number];\n        string memory tmpSaleNumber = reportInfo.saleNumber;\n        string memory tmpReportDate = reportInfo.reportDate;\n        address tmpReporter = reportInfo.reporter;\n        string memory tmpReport = reportInfo.report;\n        bool tmpState = reportInfo.state;\n        return (number, tmpSaleNumber, tmpReportDate, tmpReporter, tmpReport, tmpState);\n    }\n\n    function getLengthReport (address to) public view returns (uint) {\n        return simpleReportList[to].length;\n    }\n\n    function getNextReport (address to, uint offset) public view returns (string) {\n        return simpleReportList[to][offset];\n    }\n\n    /*//getjson\n    //number:\n    //string:\n    function getSource (string number) public returns ( string,\n                                                        string,\n                                                        bool,\n                                                        address,\n                                                        string,\n                                                        uint,\n                                                        uint,\n                                                        string,\n                                                        address,\n                                                        string,\n                                                        uint,\n                                                        uint,\n                                                        string,\n                                                        address,\n                                                        string,\n                                                        uint,\n                                                        uint,\n                                                        string,\n                                                        address,\n                                                        string,\n                                                        uint) {\n        SaleDetail memory saleInfo = saleList[number];\n        string memory tmpRollNumber = saleInfo.circulateNumber;\n        RollDetail memory rollInfo = rollList[tmpRollNumber];\n        string memory tmpInflowNumber = rollInfo.inflowNumber;\n        InflowDetail memory inflowInfo = inflowList[tmpInflowNumber];\n        string memory tmpDrugCode = inflowInfo.drugCode;\n        ProduceDetail memory produceInfo = produceList[tmpDrugCode];\n        return (    tmpDrugCode,\n                    produceInfo.drug,\n                    produceInfo.state,\n                    produceInfo.producerCode,\n                    produceInfo.produceDate,\n                    produceInfo.volume,\n                    produceInfo.left,\n                    tmpInflowNumber,\n                    inflowInfo.toMerchant,\n                    inflowInfo.inflowDate,\n                    inflowInfo.volume,\n                    inflowInfo.left,\n                    tmpRollNumber,\n                    rollInfo.toDrugstore,\n                    rollInfo.circulateDate,\n                    rollInfo.volume,\n                    rollInfo.left,\n                    number,\n                    saleInfo.customerNumber,\n                    saleInfo.saleDate,\n                    saleInfo.volume);\n    }*/\n\n    function getSource(string number) public view returns (string, string, string, string) {\n        SaleDetail memory saleInfo = saleList[number];\n        string memory tmpRollNumber = saleInfo.circulateNumber;\n        RollDetail memory rollInfo = rollList[tmpRollNumber];\n        string memory tmpInflowNumber = rollInfo.inflowNumber;\n        InflowDetail memory inflowInfo = inflowList[tmpInflowNumber];\n        string memory tmpDrugCode = inflowInfo.drugCode;\n        return (number, tmpRollNumber, tmpInflowNumber, tmpDrugCode);\n    }\n\n    //setReport\n    //return:truefalse\n    function getStateReport () public view returns (bool) {\n        return stateReport;\n    }\n\n    //------get\n\n    function getLengthReports () public view returns (uint) {\n        return reports.length;\n    }\n\n    function getNextReports (uint offset) public view returns (string) {\n        return reports[offset];\n    }\n\n\n    //setDeal\n    //return:truefalse\n    function getStateDeal () public view returns (bool) {\n        return stateDeal;\n    }\n}\n",
  "sourcePath": "D:\\Affair2018\\\\\\drugtracer\\contracts\\Drugtracer.sol",
  "compiler": {
    "name": "solc",
    "version": "0.4.24+commit.e67f0147.Emscripten.clang"
  },
  "schemaVersion": "2.0.1",
  "updatedAt": "2018-09-07T09:49:51.112Z"
}