{
  "contractName": "DrugTracer",
  "abi": [
    {
      "constant": false,
      "inputs": [
        {
          "name": "drugCode",
          "type": "string"
        },
        {
          "name": "drug",
          "type": "string"
        },
        {
          "name": "producer",
          "type": "address"
        },
        {
          "name": "produceDate",
          "type": "string"
        },
        {
          "name": "volume",
          "type": "uint256"
        }
      ],
      "name": "setProduce",
      "outputs": [
        {
          "name": "",
          "type": "bool"
        }
      ],
      "payable": false,
      "stateMutability": "nonpayable",
      "type": "function"
    },
    {
      "constant": false,
      "inputs": [
        {
          "name": "number",
          "type": "string"
        },
        {
          "name": "drugCode",
          "type": "string"
        },
        {
          "name": "volume",
          "type": "uint256"
        },
        {
          "name": "toMerchant",
          "type": "address"
        }
      ],
      "name": "setInflow",
      "outputs": [
        {
          "name": "",
          "type": "bool"
        }
      ],
      "payable": false,
      "stateMutability": "nonpayable",
      "type": "function"
    },
    {
      "constant": false,
      "inputs": [
        {
          "name": "number",
          "type": "string"
        },
        {
          "name": "inflowNumber",
          "type": "string"
        },
        {
          "name": "circulateDate",
          "type": "string"
        },
        {
          "name": "volume",
          "type": "uint256"
        },
        {
          "name": "toDrugStore",
          "type": "address"
        }
      ],
      "name": "setRoll",
      "outputs": [
        {
          "name": "",
          "type": "bool"
        }
      ],
      "payable": false,
      "stateMutability": "nonpayable",
      "type": "function"
    },
    {
      "constant": false,
      "inputs": [
        {
          "name": "number",
          "type": "string"
        },
        {
          "name": "circulateNumber",
          "type": "string"
        },
        {
          "name": "customerNumber",
          "type": "address"
        },
        {
          "name": "volume",
          "type": "uint256"
        },
        {
          "name": "saleDate",
          "type": "string"
        }
      ],
      "name": "setSale",
      "outputs": [
        {
          "name": "",
          "type": "bool"
        }
      ],
      "payable": false,
      "stateMutability": "nonpayable",
      "type": "function"
    },
    {
      "constant": false,
      "inputs": [
        {
          "name": "number",
          "type": "string"
        },
        {
          "name": "saleNumber",
          "type": "string"
        },
        {
          "name": "reportDate",
          "type": "string"
        },
        {
          "name": "reporter",
          "type": "address"
        },
        {
          "name": "report",
          "type": "string"
        },
        {
          "name": "state",
          "type": "bool"
        }
      ],
      "name": "setReport",
      "outputs": [
        {
          "name": "",
          "type": "bool"
        }
      ],
      "payable": false,
      "stateMutability": "nonpayable",
      "type": "function"
    },
    {
      "constant": false,
      "inputs": [
        {
          "name": "number",
          "type": "string"
        },
        {
          "name": "dealDate",
          "type": "string"
        },
        {
          "name": "drugCode",
          "type": "string"
        },
        {
          "name": "result",
          "type": "bool"
        }
      ],
      "name": "setDeal",
      "outputs": [
        {
          "name": "",
          "type": "bool"
        }
      ],
      "payable": false,
      "stateMutability": "nonpayable",
      "type": "function"
    },
    {
      "constant": false,
      "inputs": [
        {
          "name": "number",
          "type": "string"
        }
      ],
      "name": "getProduce",
      "outputs": [
        {
          "name": "",
          "type": "string"
        }
      ],
      "payable": false,
      "stateMutability": "nonpayable",
      "type": "function"
    },
    {
      "constant": false,
      "inputs": [
        {
          "name": "drugCode",
          "type": "string"
        }
      ],
      "name": "getInflow",
      "outputs": [
        {
          "name": "",
          "type": "string"
        }
      ],
      "payable": false,
      "stateMutability": "nonpayable",
      "type": "function"
    },
    {
      "constant": false,
      "inputs": [
        {
          "name": "to",
          "type": "address"
        }
      ],
      "name": "getSimpleInflow",
      "outputs": [
        {
          "name": "",
          "type": "string[]"
        }
      ],
      "payable": false,
      "stateMutability": "nonpayable",
      "type": "function"
    },
    {
      "constant": false,
      "inputs": [
        {
          "name": "number",
          "type": "string"
        }
      ],
      "name": "getRoll",
      "outputs": [
        {
          "name": "",
          "type": "string"
        }
      ],
      "payable": false,
      "stateMutability": "nonpayable",
      "type": "function"
    },
    {
      "constant": false,
      "inputs": [
        {
          "name": "to",
          "type": "address"
        }
      ],
      "name": "getSimpleRoll",
      "outputs": [
        {
          "name": "",
          "type": "string[]"
        }
      ],
      "payable": false,
      "stateMutability": "nonpayable",
      "type": "function"
    },
    {
      "constant": false,
      "inputs": [
        {
          "name": "number",
          "type": "string"
        }
      ],
      "name": "getSale",
      "outputs": [
        {
          "name": "",
          "type": "string"
        }
      ],
      "payable": false,
      "stateMutability": "nonpayable",
      "type": "function"
    },
    {
      "constant": false,
      "inputs": [
        {
          "name": "to",
          "type": "address"
        }
      ],
      "name": "getSimpleSale",
      "outputs": [
        {
          "name": "",
          "type": "string[]"
        }
      ],
      "payable": false,
      "stateMutability": "nonpayable",
      "type": "function"
    },
    {
      "constant": false,
      "inputs": [
        {
          "name": "number",
          "type": "string"
        }
      ],
      "name": "getReport",
      "outputs": [
        {
          "name": "",
          "type": "string"
        }
      ],
      "payable": false,
      "stateMutability": "nonpayable",
      "type": "function"
    },
    {
      "constant": false,
      "inputs": [
        {
          "name": "to",
          "type": "address"
        }
      ],
      "name": "getSimpleReport",
      "outputs": [
        {
          "name": "",
          "type": "string[]"
        }
      ],
      "payable": false,
      "stateMutability": "nonpayable",
      "type": "function"
    },
    {
      "constant": false,
      "inputs": [
        {
          "name": "number",
          "type": "string"
        }
      ],
      "name": "getSource",
      "outputs": [
        {
          "name": "",
          "type": "string"
        }
      ],
      "payable": false,
      "stateMutability": "nonpayable",
      "type": "function"
    },
    {
      "constant": false,
      "inputs": [],
      "name": "getAdminReport",
      "outputs": [
        {
          "name": "",
          "type": "string"
        }
      ],
      "payable": false,
      "stateMutability": "nonpayable",
      "type": "function"
    }
  ],
  "bytecode": "0x608060405234801561001057600080fd5b5061226c806100206000396000f3006080604052600436106100f1576000357c0100000000000000000000000000000000000000000000000000000000900463ffffffff1680630bc60d7b146100f657806312e63d71146101335780631513900714610170578063269cd802146101ad5780632de04e03146101ea57806336d5a8c7146102275780635b926e5d14610264578063663d24e0146102a15780637cc3e0e6146102de5780638117919b1461031b5780639312cc2c14610358578063952646ae146103955780639bc4b8c4146103d2578063af32f9651461040f578063bb7ca88c1461043a578063bcdbfbbc14610477578063ddf24025146104b4575b600080fd5b34801561010257600080fd5b5061011d60048036036101189190810190611b1c565b6104f1565b60405161012a91906120e7565b60405180910390f35b34801561013f57600080fd5b5061015a60048036036101559190810190611b1c565b6104f8565b60405161016791906120e7565b60405180910390f35b34801561017c57600080fd5b5061019760048036036101929190810190611c1c565b6104ff565b6040516101a491906120cc565b60405180910390f35b3480156101b957600080fd5b506101d460048036036101cf9190810190611cdb565b610806565b6040516101e191906120cc565b60405180910390f35b3480156101f657600080fd5b50610211600480360361020c9190810190611b1c565b610a54565b60405161021e91906120e7565b60405180910390f35b34801561023357600080fd5b5061024e60048036036102499190810190611af3565b610a5b565b60405161025b91906120aa565b60405180910390f35b34801561027057600080fd5b5061028b60048036036102869190810190611af3565b610a62565b60405161029891906120aa565b60405180910390f35b3480156102ad57600080fd5b506102c860048036036102c39190810190611dc4565b610a69565b6040516102d591906120cc565b60405180910390f35b3480156102ea57600080fd5b5061030560048036036103009190810190611b1c565b610d1c565b60405161031291906120e7565b60405180910390f35b34801561032757600080fd5b50610342600480360361033d9190810190611f2e565b610d23565b60405161034f91906120cc565b60405180910390f35b34801561036457600080fd5b5061037f600480360361037a9190810190611b5d565b611016565b60405161038c91906120cc565b60405180910390f35b3480156103a157600080fd5b506103bc60048036036103b79190810190611af3565b611256565b6040516103c991906120aa565b60405180910390f35b3480156103de57600080fd5b506103f960048036036103f49190810190611af3565b61125d565b60405161040691906120aa565b60405180910390f35b34801561041b57600080fd5b50610424611264565b60405161043191906120e7565b60405180910390f35b34801561044657600080fd5b50610461600480360361045c9190810190611e6f565b611269565b60405161046e91906120cc565b60405180910390f35b34801561048357600080fd5b5061049e60048036036104999190810190611b1c565b611580565b6040516104ab91906120e7565b60405180910390f35b3480156104c057600080fd5b506104db60048036036104d69190810190611b1c565b611587565b6040516104e891906120e7565b60405180910390f35b6060919050565b6060919050565b600061050961178e565b60a0604051908101604052808781526020018673ffffffffffffffffffffffffffffffffffffffff168152602001858152602001848152602001600115158152509050600015156005886040518082805190602001908083835b6020831015156105885780518252602082019150602081019050602083039250610563565b6001836020036101000a038019825116818451168082178552505050505050905001915050908152602001604051809103902060040160009054906101000a900460ff1615151480156106495750836003876040518082805190602001908083835b60208310151561060f57805182526020820191506020810190506020830392506105ea565b6001836020036101000a03801982511681845116808217855250505050505090500191505090815260200160405180910390206004015410155b156107f757806005886040518082805190602001908083835b6020831015156106875780518252602082019150602081019050602083039250610662565b6001836020036101000a038019825116818451168082178552505050505050905001915050908152602001604051809103902060008201518160000190805190602001906106d69291906117d6565b5060208201518160010160006101000a81548173ffffffffffffffffffffffffffffffffffffffff021916908373ffffffffffffffffffffffffffffffffffffffff1602179055506040820151816002015560608201518160030190805190602001906107449291906117d6565b5060808201518160040160006101000a81548160ff021916908315150217905550905050836003876040518082805190602001908083835b6020831015156107a1578051825260208201915060208101905060208303925061077c565b6001836020036101000a0380198251168184511680821785525050505050509050019150509081526020016040518091039020600401600082825403925050819055506107ee858861158e565b600191506107fc565b600091505b5095945050505050565b6000610810611856565b60c0604051908101604052808881526020018781526020018673ffffffffffffffffffffffffffffffffffffffff168152602001858152602001600015158152602001600115158152509050600015156007896040518082805190602001908083835b6020831015156108985780518252602082019150602081019050602083039250610873565b6001836020036101000a038019825116818451168082178552505050505050905001915050908152602001604051809103902060040160019054906101000a900460ff1615151415610a4457806007896040518082805190602001908083835b60208310151561091d57805182526020820191506020810190506020830392506108f8565b6001836020036101000a0380198251168184511680821785525050505050509050019150509081526020016040518091039020600082015181600001908051906020019061096c9291906117d6565b5060208201518160010190805190602001906109899291906117d6565b5060408201518160020160006101000a81548173ffffffffffffffffffffffffffffffffffffffff021916908373ffffffffffffffffffffffffffffffffffffffff16021790555060608201518160030190805190602001906109ed9291906117d6565b5060808201518160040160006101000a81548160ff02191690831515021790555060a08201518160040160016101000a81548160ff021916908315150217905550905050610a3b858961160e565b60019150610a49565b600091505b509695505050505050565b6060919050565b6060919050565b6060919050565b6000610a736118a7565b6060604051908101604052808681526020018415158152602001600115158152509050600015156009876040518082805190602001908083835b602083101515610ad25780518252602082019150602081019050602083039250610aad565b6001836020036101000a038019825116818451168082178552505050505050905001915050908152602001604051809103902060010160019054906101000a900460ff1615151415610d0e5760016007876040518082805190602001908083835b602083101515610b585780518252602082019150602081019050602083039250610b33565b6001836020036101000a038019825116818451168082178552505050505050905001915050908152602001604051809103902060040160006101000a81548160ff021916908315150217905550806009876040518082805190602001908083835b602083101515610bde5780518252602082019150602081019050602083039250610bb9565b6001836020036101000a03801982511681845116808217855250505050505090500191505090815260200160405180910390206000820151816000019080519060200190610c2d9291906117d6565b5060208201518160010160006101000a81548160ff02191690831515021790555060408201518160010160016101000a81548160ff021916908315150217905550905050600115158315151415610d0557600080856040518082805190602001908083835b602083101515610cb75780518252602082019150602081019050602083039250610c92565b6001836020036101000a038019825116818451168082178552505050505050905001915050908152602001604051809103902060010160006101000a81548160ff0219169083151502179055505b60019150610d13565b600091505b50949350505050565b6060919050565b6000610d2d6118cd565b60a0604051908101604052808681526020018581526020018473ffffffffffffffffffffffffffffffffffffffff168152602001858152602001600115158152509050600015156001876040518082805190602001908083835b602083101515610dac5780518252602082019150602081019050602083039250610d87565b6001836020036101000a038019825116818451168082178552505050505050905001915050908152602001604051809103902060040160009054906101000a900460ff161515148015610e6d5750836000866040518082805190602001908083835b602083101515610e335780518252602082019150602081019050602083039250610e0e565b6001836020036101000a03801982511681845116808217855250505050505090500191505090815260200160405180910390206004015410155b1561100857806001876040518082805190602001908083835b602083101515610eab5780518252602082019150602081019050602083039250610e86565b6001836020036101000a03801982511681845116808217855250505050505090500191505090815260200160405180910390206000820151816000019080519060200190610efa9291906117d6565b506020820151816001015560408201518160020160006101000a81548173ffffffffffffffffffffffffffffffffffffffff021916908373ffffffffffffffffffffffffffffffffffffffff1602179055506060820151816003015560808201518160040160006101000a81548160ff021916908315150217905550905050836000866040518082805190602001908083835b602083101515610fb25780518252602082019150602081019050602083039250610f8d565b6001836020036101000a038019825116818451168082178552505050505050905001915050908152602001604051809103902060040160008282540392505081905550610fff838761168e565b6001915061100d565b600091505b50949350505050565b6000611020611915565b60e0604051908101604052808781526020016001151581526020018673ffffffffffffffffffffffffffffffffffffffff168152602001858152602001848152602001848152602001600115158152509050600015156000886040518082805190602001908083835b6020831015156110ae5780518252602082019150602081019050602083039250611089565b6001836020036101000a038019825116818451168082178552505050505050905001915050908152602001604051809103902060050160009054906101000a900460ff161515141561124757806000886040518082805190602001908083835b602083101515611133578051825260208201915060208101905060208303925061110e565b6001836020036101000a038019825116818451168082178552505050505050905001915050908152602001604051809103902060008201518160000190805190602001906111829291906117d6565b5060208201518160010160006101000a81548160ff02191690831515021790555060408201518160010160016101000a81548173ffffffffffffffffffffffffffffffffffffffff021916908373ffffffffffffffffffffffffffffffffffffffff16021790555060608201518160020190805190602001906112069291906117d6565b506080820151816003015560a0820151816004015560c08201518160050160006101000a81548160ff0219169083151502179055509050506001915061124c565b600091505b5095945050505050565b6060919050565b6060919050565b606090565b600061127361196d565b60c0604051908101604052808781526020018681526020018581526020018473ffffffffffffffffffffffffffffffffffffffff168152602001858152602001600115158152509050600015156003886040518082805190602001908083835b6020831015156112f857805182526020820191506020810190506020830392506112d3565b6001836020036101000a038019825116818451168082178552505050505050905001915050908152602001604051809103902060050160009054906101000a900460ff1615151480156113b95750836001876040518082805190602001908083835b60208310151561137f578051825260208201915060208101905060208303925061135a565b6001836020036101000a03801982511681845116808217855250505050505090500191505090815260200160405180910390206003015410155b1561157157806003886040518082805190602001908083835b6020831015156113f757805182526020820191506020810190506020830392506113d2565b6001836020036101000a038019825116818451168082178552505050505050905001915050908152602001604051809103902060008201518160000190805190602001906114469291906117d6565b5060208201518160010190805190602001906114639291906117d6565b506040820151816002015560608201518160030160006101000a81548173ffffffffffffffffffffffffffffffffffffffff021916908373ffffffffffffffffffffffffffffffffffffffff1602179055506080820151816004015560a08201518160050160006101000a81548160ff021916908315150217905550905050836001876040518082805190602001908083835b60208310151561151b57805182526020820191506020810190506020830392506114f6565b6001836020036101000a038019825116818451168082178552505050505050905001915050908152602001604051809103902060030160008282540392505081905550611568838861170e565b60019150611576565b600091505b5095945050505050565b6060919050565b6060919050565b600660008373ffffffffffffffffffffffffffffffffffffffff1673ffffffffffffffffffffffffffffffffffffffff1681526020019081526020016000208190806001815401808255809150509060018203906000526020600020016000909192909190915090805190602001906116089291906119bc565b50505050565b600860008373ffffffffffffffffffffffffffffffffffffffff1673ffffffffffffffffffffffffffffffffffffffff1681526020019081526020016000208190806001815401808255809150509060018203906000526020600020016000909192909190915090805190602001906116889291906119bc565b50505050565b600260008373ffffffffffffffffffffffffffffffffffffffff1673ffffffffffffffffffffffffffffffffffffffff1681526020019081526020016000208190806001815401808255809150509060018203906000526020600020016000909192909190915090805190602001906117089291906119bc565b50505050565b600460008373ffffffffffffffffffffffffffffffffffffffff1673ffffffffffffffffffffffffffffffffffffffff1681526020019081526020016000208190806001815401808255809150509060018203906000526020600020016000909192909190915090805190602001906117889291906119bc565b50505050565b60a06040519081016040528060608152602001600073ffffffffffffffffffffffffffffffffffffffff16815260200160008152602001606081526020016000151581525090565b828054600181600116156101000203166002900490600052602060002090601f016020900481019282601f1061181757805160ff1916838001178555611845565b82800160010185558215611845579182015b82811115611844578251825591602001919060010190611829565b5b5090506118529190611a3c565b5090565b60c0604051908101604052806060815260200160608152602001600073ffffffffffffffffffffffffffffffffffffffff168152602001606081526020016000151581526020016000151581525090565b606060405190810160405280606081526020016000151581526020016000151581525090565b60a0604051908101604052806060815260200160008152602001600073ffffffffffffffffffffffffffffffffffffffff168152602001600081526020016000151581525090565b60e06040519081016040528060608152602001600015158152602001600073ffffffffffffffffffffffffffffffffffffffff1681526020016060815260200160008152602001600081526020016000151581525090565b60c060405190810160405280606081526020016060815260200160008152602001600073ffffffffffffffffffffffffffffffffffffffff168152602001600081526020016000151581525090565b828054600181600116156101000203166002900490600052602060002090601f016020900481019282601f106119fd57805160ff1916838001178555611a2b565b82800160010185558215611a2b579182015b82811115611a2a578251825591602001919060010190611a0f565b5b509050611a389190611a3c565b5090565b611a5e91905b80821115611a5a576000816000905550600101611a42565b5090565b90565b6000611a6d82356121a9565b905092915050565b6000611a8182356121c9565b905092915050565b600082601f8301121515611a9c57600080fd5b8135611aaf611aaa82612136565b612109565b91508082526020830160208301858383011115611acb57600080fd5b611ad68382846121df565b50505092915050565b6000611aeb82356121d5565b905092915050565b600060208284031215611b0557600080fd5b6000611b1384828501611a61565b91505092915050565b600060208284031215611b2e57600080fd5b600082013567ffffffffffffffff811115611b4857600080fd5b611b5484828501611a89565b91505092915050565b600080600080600060a08688031215611b7557600080fd5b600086013567ffffffffffffffff811115611b8f57600080fd5b611b9b88828901611a89565b955050602086013567ffffffffffffffff811115611bb857600080fd5b611bc488828901611a89565b9450506040611bd588828901611a61565b935050606086013567ffffffffffffffff811115611bf257600080fd5b611bfe88828901611a89565b9250506080611c0f88828901611adf565b9150509295509295909350565b600080600080600060a08688031215611c3457600080fd5b600086013567ffffffffffffffff811115611c4e57600080fd5b611c5a88828901611a89565b955050602086013567ffffffffffffffff811115611c7757600080fd5b611c8388828901611a89565b9450506040611c9488828901611a61565b9350506060611ca588828901611adf565b925050608086013567ffffffffffffffff811115611cc257600080fd5b611cce88828901611a89565b9150509295509295909350565b60008060008060008060c08789031215611cf457600080fd5b600087013567ffffffffffffffff811115611d0e57600080fd5b611d1a89828a01611a89565b965050602087013567ffffffffffffffff811115611d3757600080fd5b611d4389828a01611a89565b955050604087013567ffffffffffffffff811115611d6057600080fd5b611d6c89828a01611a89565b9450506060611d7d89828a01611a61565b935050608087013567ffffffffffffffff811115611d9a57600080fd5b611da689828a01611a89565b92505060a0611db789828a01611a75565b9150509295509295509295565b60008060008060808587031215611dda57600080fd5b600085013567ffffffffffffffff811115611df457600080fd5b611e0087828801611a89565b945050602085013567ffffffffffffffff811115611e1d57600080fd5b611e2987828801611a89565b935050604085013567ffffffffffffffff811115611e4657600080fd5b611e5287828801611a89565b9250506060611e6387828801611a75565b91505092959194509250565b600080600080600060a08688031215611e8757600080fd5b600086013567ffffffffffffffff811115611ea157600080fd5b611ead88828901611a89565b955050602086013567ffffffffffffffff811115611eca57600080fd5b611ed688828901611a89565b945050604086013567ffffffffffffffff811115611ef357600080fd5b611eff88828901611a89565b9350506060611f1088828901611adf565b9250506080611f2188828901611a61565b9150509295509295909350565b60008060008060808587031215611f4457600080fd5b600085013567ffffffffffffffff811115611f5e57600080fd5b611f6a87828801611a89565b945050602085013567ffffffffffffffff811115611f8757600080fd5b611f9387828801611a89565b9350506040611fa487828801611adf565b9250506060611fb587828801611a61565b91505092959194509250565b6000611fcc8261216f565b80845260208401935083602082028501611fe585612162565b60005b8481101561201e578383038852612000838351612074565b925061200b82612190565b9150602088019750600181019050611fe8565b508196508694505050505092915050565b6120388161219d565b82525050565b600061204982612185565b80845261205d8160208601602086016121ee565b61206681612221565b602085010191505092915050565b600061207f8261217a565b8084526120938160208601602086016121ee565b61209c81612221565b602085010191505092915050565b600060208201905081810360008301526120c48184611fc1565b905092915050565b60006020820190506120e1600083018461202f565b92915050565b60006020820190508181036000830152612101818461203e565b905092915050565b6000604051905081810181811067ffffffffffffffff8211171561212c57600080fd5b8060405250919050565b600067ffffffffffffffff82111561214d57600080fd5b601f19601f8301169050602081019050919050565b6000602082019050919050565b600081519050919050565b600081519050919050565b600081519050919050565b6000602082019050919050565b60008115159050919050565b600073ffffffffffffffffffffffffffffffffffffffff82169050919050565b60008115159050919050565b6000819050919050565b82818337600083830152505050565b60005b8381101561220c5780820151818401526020810190506121f1565b8381111561221b576000848401525b50505050565b6000601f19601f83011690509190505600a265627a7a72305820bc52a4dfbc3ae2b7b164aa97ffbf68fe7c171aaead63f721d63a1a4eb376a35d6c6578706572696d656e74616cf50037",
  "source": "pragma solidity ^0.4.0;\npragma experimental ABIEncoderV2;\ncontract DrugTracer {\n\n    //------------------------\n\n    //\n    struct ProduceDetail {\n        string  drug;           //\n        bool    state;          //\n        address producerCode;   //\n        string  produceDate;    //\n        uint    volume;         //\n        uint    left;           //\n        bool    isValid;\n    }\n\n    //\n    mapping (string => ProduceDetail) produceList;\n\n    //\n    struct InflowDetail {\n        string  drugCode;   //\n        uint    volume;     //\n        address toMerchant; //\n        uint    left;       //\n        bool    isValid;\n    }\n\n    //\n    mapping (string => InflowDetail) inflowList;\n\n    //\n    mapping (address => string[]) simpleInflowList;\n\n    //---------------------------\n\n    //\n    struct RollDetail {\n        string  inflowNumber;   //\n        string  circulateDate;  //\n        uint    volume;         //\n        address toDrugstore;    //\n        uint    left;           //\n        bool    isValid;\n    }\n\n    //\n    mapping (string=>RollDetail) rollList;\n\n    //\n    mapping (address=>string[]) simpleRollList;\n\n    //-------------------------\n\n    //\n    struct SaleDetail {\n        string  circulateNumber;    //\n        address customerNumber;     //\n        uint    volume;             //\n        string  saleDate;           //\n        bool    isValid;\n    }\n\n    //\n    mapping (string=>SaleDetail) saleList;\n\n    //\n    mapping (address=>string[]) simpleSaleList;\n\n    //---------------------------\n\n    //\n    struct ReportDetail {\n        string  saleNumber; //\n        string  reportDate; //\n        address reporter;   //\n        string  report;     //\n        bool    state;      //\n        bool    isValid;\n    }\n\n    //\n    mapping (string=>ReportDetail) reportList;\n\n    //\n    mapping (address=>string[]) simpleReportList;\n\n    //-------------------------\n\n    //\n    struct DealDetail {\n        string  dealDate;   //\n        bool    result;     //\n        bool    isValid;\n    }\n\n    //\n    mapping (string=>DealDetail) dealList;\n\n    //\n    string[] reports;\n\n    //------set--------------------\n\n    //statetrue\n    //drugCode:\n    //drug:\n    //producer:\n    //produceDate:\n    //volume:\n    //return:truefalse\n    function setProduce (\n                        string drugCode,\n                        string drug,\n                        address producer,\n                        string produceDate,\n                        uint volume)\n                        public returns (bool) {\n        ProduceDetail memory drugInfo = ProduceDetail(drug, true, producer, produceDate, volume, volume, true);\n        if (produceList[drugCode].isValid == false) {\n            produceList[drugCode] = drugInfo;\n            return true;\n        }\n        else {\n            return false;\n        }\n    }\n    \n    //hash\n    //number:\n    //drugCode:\n    //volume:\n    //toMerchant:\n    //return:truefalse\n    function setInflow (\n                        string number,\n                        string drugCode,\n                        uint volume,\n                        address toMerchant)\n                        public returns (bool) {\n        InflowDetail memory inflowInfo = InflowDetail(drugCode, volume, toMerchant, volume, true);//\n        if (inflowList[number].isValid == false && produceList[drugCode].left >= volume) {\n            inflowList[number] = inflowInfo;\n            produceList[drugCode].left -= volume;\n            setSimpleInflow(toMerchant, number);\n            return true;\n        }\n        else {\n            return false;\n        }\n    }\n\n    //\n    //to:\n    //number:\n    function setSimpleInflow (\n                                address to,\n                                string number)\n                                internal {\n        simpleInflowList[to].push(number);\n    }\n\n    //------set---------------------\n    \n    //hash\n    //number:\n    //inflowNumber:\n    //circulateDate:\n    //volume:\n    //toDrugStore:\n    //return:\n    function setRoll (\n                        string number,\n                        string inflowNumber,\n                        string circulateDate,\n                        uint volume,\n                        address toDrugStore)\n                        public returns (bool) {\n        RollDetail memory rollInfo = RollDetail(inflowNumber, circulateDate, volume, toDrugStore, volume, true);\n        if (rollList[number].isValid == false && inflowList[inflowNumber].left >= volume) {\n            rollList[number] = rollInfo;\n            inflowList[inflowNumber].left -= volume;\n            setSimpleRoll(toDrugStore, number);\n            return true;\n        }\n        else {\n            return false;\n        }\n    }\n\n    //\n    //to:\n    //number:\n    function setSimpleRoll (\n                            address to,\n                            string number)\n                            internal {\n        simpleRollList[to].push(number);\n    }\n\n    //------set-----------------------\n\n    //hash\n    //number:\n    //circulateNumber:\n    //customerNumber:\n    //volume:\n    //saleDate:\n    //return:truefalse\n    function setSale (\n                        string number,\n                        string circulateNumber,\n                        address customerNumber,\n                        uint volume,\n                        string saleDate)\n                        public returns (bool) {\n        SaleDetail memory saleInfo = SaleDetail(circulateNumber, customerNumber, volume, saleDate, true);\n        if (saleList[number].isValid == false && rollList[circulateNumber].left >= volume) {\n            saleList[number] = saleInfo;\n            rollList[circulateNumber].left -= volume;\n            setSimpleSale(customerNumber, number);\n            return true;\n        }\n        else {\n            return false;\n        }\n    }\n\n    //\n    //to:\n    //number:\n    function setSimpleSale(\n                            address to,\n                            string number)\n                            internal {\n        simpleSaleList[to].push(number);\n    }\n\n    //------set------------------------\n\n    //hashfalse\n    //number:\n    //saleNumber:\n    //reportDate:\n    //report:\n    //state:falsetrue\n    //return:truefalse\n    function setReport (\n                        string number,\n                        string saleNumber,\n                        string reportDate,\n                        address reporter,\n                        string report,\n                        bool state)\n                        public returns (bool) {\n        ReportDetail memory reportInfo = ReportDetail(saleNumber, reportDate, reporter, report, false, true);\n        if (reportList[number].isValid == false) {\n            reportList[number] = reportInfo;\n            setSimpleReport(reporter, number);\n            return true;\n        }\n        else {\n            return false;\n        }\n    }\n\n    //\n    //to:\n    //number:\n    function setSimpleReport (\n                                address to,\n                                string number)\n                                internal {\n        simpleReportList[to].push(number);\n    }\n    \n    //------set----------------------------\n\n    //true\n    //number:\n    //dealDate:\n    //result:\n    //return:truefalse\n    function setDeal (\n                        string number,\n                        string dealDate,\n                        string drugCode,\n                        bool result)\n                        public returns (bool) {\n        DealDetail memory dealInfo = DealDetail(dealDate, result, true);\n        if (dealList[number].isValid == false) {\n            reportList[number].state = true;\n            dealList[number] = dealInfo;\n            if (result == true) {\n                //\n                produceList[drugCode].state = false;\n            }\n           return true;\n        }\n        else {\n            return false;\n        }\n    }\n\n    //------get\n\n    function getProduce (string number) public returns (string) {\n        //TODO:GETPRODUCE\n        \n        \n    }\n\n    function getInflow (string drugCode) public returns (string) {\n        //TODO:GETINFLOW\n    }\n\n    function getSimpleInflow (address to) public returns (string[]) {\n        //TODO:GETSIMPLEINFLOW\n    }\n\n    //------get\n\n    function getRoll (string number) public returns (string) {\n        //TODO:GETROLL\n    }\n\n    function getSimpleRoll (address to) public returns (string[]) {\n        //TODO:GETSIMPLEROLL\n    }\n\n    //------get\n\n    function getSale (string number) public returns (string) {\n\n    }\n\n    function getSimpleSale (address to) public returns (string[]) {\n\n    }\n\n    //------get\n\n    function getReport (string number) public returns (string) {\n\n    }\n    \n    function getSimpleReport (address to) public returns (string[]) {\n\n    }\n\n    function getSource (string number) public returns (string) {\n\n    }\n\n    //------get\n\n    function getAdminReport () public returns (string) {\n        \n    }\n}\n",
  "sourcePath": "C:\\Users\\10848\\Desktop\\solidity\\drugtracer\\contracts\\Drugtracer.sol",
  "compiler": {
    "name": "solc",
    "version": "0.4.24+commit.e67f0147.Emscripten.clang"
  },
  "schemaVersion": "2.0.1",
  "updatedAt": "2018-09-06T11:52:21.541Z"
}