{
  "contractName": "Producer",
  "abi": [
    {
      "constant": true,
      "inputs": [
        {
          "name": "drugCode",
          "type": "string"
        },
        {
          "name": "drug",
          "type": "string"
        },
        {
          "name": "producer",
          "type": "address"
        },
        {
          "name": "produceDate",
          "type": "string"
        }
      ],
      "name": "setProduce",
      "outputs": [
        {
          "name": "",
          "type": "bool"
        }
      ],
      "payable": false,
      "stateMutability": "view",
      "type": "function"
    }
  ],
  "bytecode": "0x608060405234801561001057600080fd5b506102e2806100206000396000f300608060405260043610610041576000357c0100000000000000000000000000000000000000000000000000000000900463ffffffff168063adb7f3a814610046575b600080fd5b34801561005257600080fd5b50610159600480360381019080803590602001908201803590602001908080601f0160208091040260200160405190810160405280939291908181526020018383808284378201915050505050509192919290803590602001908201803590602001908080601f0160208091040260200160405190810160405280939291908181526020018383808284378201915050505050509192919290803573ffffffffffffffffffffffffffffffffffffffff169060200190929190803590602001908201803590602001908080601f0160208091040260200160405190810160405280939291908181526020018383808284378201915050505050509192919290505050610173565b604051808215151515815260200191505060405180910390f35b6000808481600001908051906020019061018e929190610211565b5060018160010160006101000a81548160ff021916908315150217905550838160010160016101000a81548173ffffffffffffffffffffffffffffffffffffffff021916908373ffffffffffffffffffffffffffffffffffffffff16021790555082816002019080519060200190610207929190610211565b5050949350505050565b828054600181600116156101000203166002900490600052602060002090601f016020900481019282601f1061025257805160ff1916838001178555610280565b82800160010185558215610280579182015b8281111561027f578251825591602001919060010190610264565b5b50905061028d9190610291565b5090565b6102b391905b808211156102af576000816000905550600101610297565b5090565b905600a165627a7a72305820339b46f88214cfbf41d5028769dbce5eae5a349a3357bc4ee16b8b01dde1d4050029",
  "source": "pragma solidity ^0.4.0;\r\n//药厂类\r\ncontract Producer {\r\n\r\n    //出厂信息\r\n    struct ProduceDetail {\r\n        string  drug;           //药品名称\r\n        bool    state;          //合格状态\r\n        address producerCode;   //厂商地址\r\n        string  produceDate;   //出厂日期\r\n    }\r\n\r\n\r\n\r\n\r\n    //出厂信息映射\r\n    mapping (string => ProduceDetail) produceList;\r\n\r\n    //流入市场信息\r\n    struct InflowDetail {\r\n        string  drugCode;   //药品批号\r\n        uint    volume;     //交易量\r\n        address toMerchant;         //销售商地址\r\n    }\r\n\r\n    //流入市场信息映射\r\n    mapping (string => InflowDetail) inflowList;\r\n\r\n    //流入记录\r\n    mapping (address => string[]) simpleInflowList;\r\n\r\n    function setProduce(string drugCode,string drug,address producer,string produceDate)\r\n    public constant returns(bool){\r\n        ProduceDetail druginfo;\r\n        druginfo.drug = drug;\r\n        druginfo.state = true;\r\n        druginfo.producerCode = producer;\r\n        druginfo.produceDate = produceDate;\r\n        \r\n    }\r\n\r\n}",
  "sourcePath": "C:\\Users\\10848\\Desktop\\solidity\\drugtracer\\contracts\\producer.sol",
  "compiler": {
    "name": "solc",
    "version": "0.4.24+commit.e67f0147.Emscripten.clang"
  },
  "schemaVersion": "2.0.1",
  "updatedAt": "2018-09-04T12:37:29.379Z"
}