{
  "contractName": "Producer",
  "abi": [
    {
      "constant": false,
      "inputs": [
        {
          "name": "drugCode",
          "type": "string"
        },
        {
          "name": "drug",
          "type": "string"
        },
        {
          "name": "producer",
          "type": "address"
        },
        {
          "name": "produceDate",
          "type": "string"
        }
      ],
      "name": "setProduce",
      "outputs": [
        {
          "name": "",
          "type": "bool"
        }
      ],
      "payable": false,
      "stateMutability": "nonpayable",
      "type": "function"
    },
    {
      "constant": false,
      "inputs": [
        {
          "name": "number",
          "type": "string"
        },
        {
          "name": "drugCode",
          "type": "string"
        },
        {
          "name": "volume",
          "type": "uint256"
        },
        {
          "name": "toMerchant",
          "type": "address"
        }
      ],
      "name": "setInflow",
      "outputs": [
        {
          "name": "",
          "type": "bool"
        }
      ],
      "payable": false,
      "stateMutability": "nonpayable",
      "type": "function"
    }
  ],
  "bytecode": "0x608060405234801561001057600080fd5b5061074f806100206000396000f30060806040526004361061004c576000357c0100000000000000000000000000000000000000000000000000000000900463ffffffff1680638117919b14610051578063adb7f3a814610142575b600080fd5b34801561005d57600080fd5b50610128600480360381019080803590602001908201803590602001908080601f0160208091040260200160405190810160405280939291908181526020018383808284378201915050505050509192919290803590602001908201803590602001908080601f016020809104026020016040519081016040528093929190818152602001838380828437820191505050505050919291929080359060200190929190803573ffffffffffffffffffffffffffffffffffffffff16906020019092919050505061026f565b604051808215151515815260200191505060405180910390f35b34801561014e57600080fd5b50610255600480360381019080803590602001908201803590602001908080601f0160208091040260200160405190810160405280939291908181526020018383808284378201915050505050509192919290803590602001908201803590602001908080601f0160208091040260200160405190810160405280939291908181526020018383808284378201915050505050509192919290803573ffffffffffffffffffffffffffffffffffffffff169060200190929190803590602001908201803590602001908080601f01602080910402602001604051908101604052809392919081815260200183838082843782019150505050505091929192905050506103a1565b604051808215151515815260200191505060405180910390f35b6000610279610585565b6060604051908101604052808681526020018581526020018473ffffffffffffffffffffffffffffffffffffffff168152509050806001876040518082805190602001908083835b6020831015156102e657805182526020820191506020810190506020830392506102c1565b6001836020036101000a038019825116818451168082178552505050505050905001915050908152602001604051809103902060008201518160000190805190602001906103359291906105bd565b506020820151816001015560408201518160020160006101000a81548173ffffffffffffffffffffffffffffffffffffffff021916908373ffffffffffffffffffffffffffffffffffffffff1602179055509050506103948387610505565b6001915050949350505050565b60006103ab61063d565b6080604051908101604052808681526020016001151581526020018573ffffffffffffffffffffffffffffffffffffffff168152602001848152509050806000876040518082805190602001908083835b60208310151561042157805182526020820191506020810190506020830392506103fc565b6001836020036101000a038019825116818451168082178552505050505050905001915050908152602001604051809103902060008201518160000190805190602001906104709291906105bd565b5060208201518160010160006101000a81548160ff02191690831515021790555060408201518160010160016101000a81548173ffffffffffffffffffffffffffffffffffffffff021916908373ffffffffffffffffffffffffffffffffffffffff16021790555060608201518160020190805190602001906104f49291906105bd565b509050506001915050949350505050565b600260008373ffffffffffffffffffffffffffffffffffffffff1673ffffffffffffffffffffffffffffffffffffffff16815260200190815260200160002081908060018154018082558091505090600182039060005260206000200160009091929091909150908051906020019061057f92919061067e565b50505050565b6060604051908101604052806060815260200160008152602001600073ffffffffffffffffffffffffffffffffffffffff1681525090565b828054600181600116156101000203166002900490600052602060002090601f016020900481019282601f106105fe57805160ff191683800117855561062c565b8280016001018555821561062c579182015b8281111561062b578251825591602001919060010190610610565b5b50905061063991906106fe565b5090565b60806040519081016040528060608152602001600015158152602001600073ffffffffffffffffffffffffffffffffffffffff168152602001606081525090565b828054600181600116156101000203166002900490600052602060002090601f016020900481019282601f106106bf57805160ff19168380011785556106ed565b828001600101855582156106ed579182015b828111156106ec5782518255916020019190600101906106d1565b5b5090506106fa91906106fe565b5090565b61072091905b8082111561071c576000816000905550600101610704565b5090565b905600a165627a7a7230582097ab7d66dc5d00a7074853447d8da55e1485cb2f8a109840962f6ee2728b63d80029",
  "source": "pragma solidity ^0.4.0;\n//药厂类\ncontract Producer {\n\n    //出厂信息\n    struct ProduceDetail {\n        string  drug;           //药品名称\n        bool    state;          //合格状态\n        address producerCode;   //厂商地址\n        string  produceDate;   //出厂日期\n    }\n\n    //出厂信息映射\n    mapping (string => ProduceDetail) produceList;\n\n    //流入市场信息\n    struct InflowDetail {\n        string  drugCode;   //药品批号\n        uint    volume;     //交易量\n        address toMerchant;         //销售商地址\n    }\n\n    //流入市场信息映射\n    mapping (string => InflowDetail) inflowList;\n\n    //流入记录\n    mapping (address => string[]) simpleInflowList;\n\n    //插入出厂记录，state默认true，药品批号由前端生成，返回处理结果（布尔值）\n    //drugCode:药品批号\n    //drug:药品名称\n    //producer:厂商编号\n    //produceDate:出厂日期\n    //return:true成功，false失败\n    function setProduce (\n                        string drugCode,\n                        string drug,\n                        address producer,\n                        string produceDate)\n                        public returns (bool) {\n        ProduceDetail memory drugInfo = ProduceDetail(drug, true, producer, produceDate);\n        produceList[drugCode] = drugInfo;\n        return true;\n    }\n\n    //插入流入市场记录，交易单号为交易的hash值，返回处理结果（布尔值）\n    //number:流入交易单号\n    //drugCode:药品批号\n    //volume:交易量\n    //toMerchant:销售商地址\n    //return:true成功，false失败\n    function setInflow (\n                        string number,\n                        string drugCode,\n                        uint volume,\n                        address toMerchant)\n                        public returns (bool) {\n        InflowDetail memory inflowInfo = InflowDetail(drugCode, volume, toMerchant);\n        inflowList[number] = inflowInfo;\n        setSimpleInflow(toMerchant, number);\n        return true;\n    }\n\n    function setSimpleInflow (address to, string number) internal {\n        simpleInflowList[to].push(number);\n    }\n}\n",
  "sourcePath": "D:\\Affair2018\\小学期\\应用\\drugtracer\\contracts\\Producer.sol",
  "compiler": {
    "name": "solc",
    "version": "0.4.24+commit.e67f0147.Emscripten.clang"
  },
  "schemaVersion": "2.0.1",
  "updatedAt": "2018-09-04T15:04:07.711Z"
}