{
  "contractName": "Token",
  "abi": [
    {
      "inputs": [],
      "payable": false,
      "stateMutability": "nonpayable",
      "type": "constructor"
    },
    {
      "anonymous": false,
      "inputs": [
        {
          "indexed": false,
          "name": "account",
          "type": "address"
        },
        {
          "indexed": false,
          "name": "amount",
          "type": "uint256"
        }
      ],
      "name": "Issue",
      "type": "event"
    },
    {
      "anonymous": false,
      "inputs": [
        {
          "indexed": false,
          "name": "from",
          "type": "address"
        },
        {
          "indexed": false,
          "name": "to",
          "type": "address"
        },
        {
          "indexed": false,
          "name": "amount",
          "type": "uint256"
        }
      ],
      "name": "Transfer",
      "type": "event"
    },
    {
      "constant": false,
      "inputs": [
        {
          "name": "account",
          "type": "address"
        },
        {
          "name": "amount",
          "type": "uint256"
        }
      ],
      "name": "issue",
      "outputs": [],
      "payable": false,
      "stateMutability": "nonpayable",
      "type": "function"
    },
    {
      "constant": false,
      "inputs": [
        {
          "name": "account",
          "type": "address"
        }
      ],
      "name": "init",
      "outputs": [
        {
          "name": "",
          "type": "uint256"
        }
      ],
      "payable": false,
      "stateMutability": "nonpayable",
      "type": "function"
    },
    {
      "constant": true,
      "inputs": [
        {
          "name": "account",
          "type": "address"
        }
      ],
      "name": "chaxun",
      "outputs": [
        {
          "name": "a",
          "type": "string"
        },
        {
          "name": "b",
          "type": "uint256"
        }
      ],
      "payable": false,
      "stateMutability": "view",
      "type": "function"
    },
    {
      "constant": false,
      "inputs": [
        {
          "name": "account",
          "type": "address"
        },
        {
          "name": "amount",
          "type": "uint256"
        },
        {
          "name": "aa",
          "type": "string"
        }
      ],
      "name": "transfer01",
      "outputs": [
        {
          "name": "a",
          "type": "string"
        }
      ],
      "payable": false,
      "stateMutability": "nonpayable",
      "type": "function"
    },
    {
      "constant": true,
      "inputs": [
        {
          "name": "account",
          "type": "address"
        },
        {
          "name": "ine",
          "type": "uint256"
        }
      ],
      "name": "getmessage",
      "outputs": [
        {
          "name": "d",
          "type": "string"
        },
        {
          "name": "a",
          "type": "uint256"
        },
        {
          "name": "f",
          "type": "string"
        },
        {
          "name": "b",
          "type": "string"
        }
      ],
      "payable": false,
      "stateMutability": "view",
      "type": "function"
    },
    {
      "constant": false,
      "inputs": [
        {
          "name": "to",
          "type": "address"
        },
        {
          "name": "amount",
          "type": "uint256"
        }
      ],
      "name": "transfer02",
      "outputs": [],
      "payable": false,
      "stateMutability": "nonpayable",
      "type": "function"
    },
    {
      "constant": true,
      "inputs": [
        {
          "name": "amount",
          "type": "uint256"
        },
        {
          "name": "t",
          "type": "uint256"
        }
      ],
      "name": "print",
      "outputs": [
        {
          "name": "a",
          "type": "string"
        },
        {
          "name": "b",
          "type": "uint256"
        }
      ],
      "payable": false,
      "stateMutability": "view",
      "type": "function"
    },
    {
      "constant": true,
      "inputs": [
        {
          "name": "account",
          "type": "address"
        }
      ],
      "name": "getBalance",
      "outputs": [
        {
          "name": "",
          "type": "uint256"
        }
      ],
      "payable": false,
      "stateMutability": "view",
      "type": "function"
    },
    {
      "constant": true,
      "inputs": [
        {
          "name": "account",
          "type": "address"
        }
      ],
      "name": "getBalance0",
      "outputs": [
        {
          "name": "",
          "type": "uint256"
        }
      ],
      "payable": false,
      "stateMutability": "view",
      "type": "function"
    },
    {
      "constant": true,
      "inputs": [
        {
          "name": "account",
          "type": "address"
        }
      ],
      "name": "getBalance1",
      "outputs": [
        {
          "name": "",
          "type": "uint256"
        }
      ],
      "payable": false,
      "stateMutability": "view",
      "type": "function"
    }
  ],
  "bytecode": "0x608060405234801561001057600080fd5b50336000806101000a81548173ffffffffffffffffffffffffffffffffffffffff021916908373ffffffffffffffffffffffffffffffffffffffff1602179055506110c7806100606000396000f3006080604052600436106100a4576000357c0100000000000000000000000000000000000000000000000000000000900463ffffffff16806319ab453c146100a957806335be6b9714610100578063616cbed4146101575780637837a95f14610263578063867904b414610326578063c176fac214610373578063c6bf1be4146103c0578063cab7a62014610565578063eb32e95d146105bc578063f8b2cb4f14610673575b600080fd5b3480156100b557600080fd5b506100ea600480360381019080803573ffffffffffffffffffffffffffffffffffffffff1690602001909291905050506106ca565b6040518082815260200191505060405180910390f35b34801561010c57600080fd5b50610141600480360381019080803573ffffffffffffffffffffffffffffffffffffffff16906020019092919050505061079f565b6040518082815260200191505060405180910390f35b34801561016357600080fd5b506101e8600480360381019080803573ffffffffffffffffffffffffffffffffffffffff16906020019092919080359060200190929190803590602001908201803590602001908080601f01602080910402602001604051908101604052809392919081815260200183838082843782019150505050505091929192905050506107e8565b6040518080602001828103825283818151815260200191508051906020019080838360005b8381101561022857808201518184015260208101905061020d565b50505050905090810190601f1680156102555780820380516001836020036101000a031916815260200191505b509250505060405180910390f35b34801561026f57600080fd5b506102a4600480360381019080803573ffffffffffffffffffffffffffffffffffffffff169060200190929190505050610a9f565b6040518080602001838152602001828103825284818151815260200191508051906020019080838360005b838110156102ea5780820151818401526020810190506102cf565b50505050905090810190601f1680156103175780820380516001836020036101000a031916815260200191505b50935050505060405180910390f35b34801561033257600080fd5b50610371600480360381019080803573ffffffffffffffffffffffffffffffffffffffff16906020019092919080359060200190929190505050610b68565b005b34801561037f57600080fd5b506103be600480360381019080803573ffffffffffffffffffffffffffffffffffffffff16906020019092919080359060200190929190505050610c14565b005b3480156103cc57600080fd5b5061040b600480360381019080803573ffffffffffffffffffffffffffffffffffffffff16906020019092919080359060200190929190505050610d10565b60405180806020018581526020018060200180602001848103845288818151815260200191508051906020019080838360005b8381101561045957808201518184015260208101905061043e565b50505050905090810190601f1680156104865780820380516001836020036101000a031916815260200191505b50848103835286818151815260200191508051906020019080838360005b838110156104bf5780820151818401526020810190506104a4565b50505050905090810190601f1680156104ec5780820380516001836020036101000a031916815260200191505b50848103825285818151815260200191508051906020019080838360005b8381101561052557808201518184015260208101905061050a565b50505050905090810190601f1680156105525780820380516001836020036101000a031916815260200191505b5097505050505050505060405180910390f35b34801561057157600080fd5b506105a6600480360381019080803573ffffffffffffffffffffffffffffffffffffffff169060200190929190505050610ed4565b6040518082815260200191505060405180910390f35b3480156105c857600080fd5b506105f16004803603810190808035906020019092919080359060200190929190505050610f1d565b6040518080602001838152602001828103825284818151815260200191508051906020019080838360005b8381101561063757808201518184015260208101905061061c565b50505050905090810190601f1680156106645780820380516001836020036101000a031916815260200191505b50935050505060405180910390f35b34801561067f57600080fd5b506106b4600480360381019080803573ffffffffffffffffffffffffffffffffffffffff169060200190929190505050610fad565b6040518082815260200191505060405180910390f35b6000620f4240600160008473ffffffffffffffffffffffffffffffffffffffff1673ffffffffffffffffffffffffffffffffffffffff16815260200190815260200160002081905550620f42406002600073889c82047363e1a05b05d004b57a860ec1c31d8173ffffffffffffffffffffffffffffffffffffffff16815260200190815260200160002081905550600160008373ffffffffffffffffffffffffffffffffffffffff1673ffffffffffffffffffffffffffffffffffffffff168152602001908152602001600020549050919050565b6000600360008373ffffffffffffffffffffffffffffffffffffffff1673ffffffffffffffffffffffffffffffffffffffff168152602001908152602001600020549050919050565b60606000600360008673ffffffffffffffffffffffffffffffffffffffff1673ffffffffffffffffffffffffffffffffffffffff16815260200190815260200160002054905083600160008773ffffffffffffffffffffffffffffffffffffffff1673ffffffffffffffffffffffffffffffffffffffff16815260200190815260200160002060008282540392505081905550836001600073889c82047363e1a05b05d004b57a860ec1c31d8173ffffffffffffffffffffffffffffffffffffffff1681526020019081526020016000206000828254019250508190555084600460008773ffffffffffffffffffffffffffffffffffffffff1673ffffffffffffffffffffffffffffffffffffffff168152602001908152602001600020600001600083815260200190815260200160002060006101000a81548173ffffffffffffffffffffffffffffffffffffffff021916908373ffffffffffffffffffffffffffffffffffffffff16021790555083600460008773ffffffffffffffffffffffffffffffffffffffff1673ffffffffffffffffffffffffffffffffffffffff16815260200190815260200160002060010160008381526020019081526020016000208190555082600460008773ffffffffffffffffffffffffffffffffffffffff1673ffffffffffffffffffffffffffffffffffffffff16815260200190815260200160002060020160008381526020019081526020016000209080519060200190610a17929190610ff6565b5060018101600360008773ffffffffffffffffffffffffffffffffffffffff1673ffffffffffffffffffffffffffffffffffffffff168152602001908152602001600020819055506040805190810160405280600f81526020017fe5b0b1e8af8ae68890e58a9fefbc8100000000000000000000000000000000008152509150509392505050565b606060006040805190810160405280601281526020017fe69caae68aa5e99480e992b1e695b0efbc9a00000000000000000000000000008152509150600260008473ffffffffffffffffffffffffffffffffffffffff1673ffffffffffffffffffffffffffffffffffffffff16815260200190815260200160002054600160008573ffffffffffffffffffffffffffffffffffffffff1673ffffffffffffffffffffffffffffffffffffffff16815260200190815260200160002054620f424003039050915091565b6000809054906101000a900473ffffffffffffffffffffffffffffffffffffffff1673ffffffffffffffffffffffffffffffffffffffff163373ffffffffffffffffffffffffffffffffffffffff16141515610bc357600080fd5b80600160008473ffffffffffffffffffffffffffffffffffffffff1673ffffffffffffffffffffffffffffffffffffffff168152602001908152602001600020600082825401925050819055505050565b806002600073889c82047363e1a05b05d004b57a860ec1c31d8173ffffffffffffffffffffffffffffffffffffffff168152602001908152602001600020541015610c6757610c64816000610f1d565b50505b80600260008473ffffffffffffffffffffffffffffffffffffffff1673ffffffffffffffffffffffffffffffffffffffff16815260200190815260200160002060008282540192505081905550806002600073889c82047363e1a05b05d004b57a860ec1c31d8173ffffffffffffffffffffffffffffffffffffffff16815260200190815260200160002060008282540392505081905550610d0a816001610f1d565b50505050565b606060006060806040805190810160405280601181526020017fe5b0b1e8af8ae98791e9a29de4b8ba203a0000000000000000000000000000008152509350600460008773ffffffffffffffffffffffffffffffffffffffff1673ffffffffffffffffffffffffffffffffffffffff16815260200190815260200160002060010160008681526020019081526020016000205492506040805190810160405280600f81526020017fe79785e68385e68f8fe8bfb0efbc9a00000000000000000000000000000000008152509150600460008773ffffffffffffffffffffffffffffffffffffffff1673ffffffffffffffffffffffffffffffffffffffff16815260200190815260200160002060020160008681526020019081526020016000208054600181600116156101000203166002900480601f016020809104026020016040519081016040528092919081815260200182805460018160011615610100020316600290048015610ec45780601f10610e9957610100808354040283529160200191610ec4565b820191906000526020600020905b815481529060010190602001808311610ea757829003601f168201915b5050505050905092959194509250565b6000600260008373ffffffffffffffffffffffffffffffffffffffff1673ffffffffffffffffffffffffffffffffffffffff168152602001908152602001600020549050919050565b6060600080831415610f6a57600090506040805190810160405280601881526020017fe4bf9de999a9e68aa5e99480e69caae79fa5e99499e8afaf00000000000000008152509150610fa6565b6040805190810160405280601e81526020017fe68aa5e99480e68890e58a9fefbc8ce68aa5e99480e98791e9a29defbc9a000081525091508390505b9250929050565b6000600160008373ffffffffffffffffffffffffffffffffffffffff1673ffffffffffffffffffffffffffffffffffffffff168152602001908152602001600020549050919050565b828054600181600116156101000203166002900490600052602060002090601f016020900481019282601f1061103757805160ff1916838001178555611065565b82800160010185558215611065579182015b82811115611064578251825591602001919060010190611049565b5b5090506110729190611076565b5090565b61109891905b8082111561109457600081600090555060010161107c565b5090565b905600a165627a7a72305820f88252d1f65ab135c230784ec6cd9ce4185171ec462489dcba4c268e5803fe2d0029",
  "source": "pragma solidity ^0.4.22;\ncontract Token {\n             address issuer;\n             mapping (address => uint) balances;\n             struct Userstruct{\n                 mapping (uint => address)useraddress;\n                 mapping (uint => uint) moneyamount;\n                 mapping (uint => string) bingqing;\n             } \n             mapping (address => uint) balances0;\n             mapping (address => uint) balances1;\n             mapping (address => Userstruct)userstruct;\n             event Issue(address account, uint amount);\n             event Transfer(address from, address to,uint amount);\n             function Token() {\n                 issuer = msg.sender;\n             }\n\n             function issue(address account, uint amount) {\n                 if (msg.sender != issuer) throw;\n                 balances[account] += amount;\n             }\n             function init(address account) returns(uint){\n                 balances[account]=1000000;\n                 balances0[0x889c82047363e1a05b05d004b57a860ec1c31d81]=1000000;\n                 return balances[account];\n             }\n             function chaxun(address account) constant public returns(string a,uint b){\n                  a=\"未报销钱数：\";\n                  b=1000000-balances[account]-balances0[account];\n             }\n             function transfer01(address account,uint amount,string aa)  returns(string a)\n             {\n                 uint i=balances1[account];\n                 balances[account] -= amount;\n                 balances[0x889c82047363e1a05b05d004b57a860ec1c31d81] += amount;\n                 userstruct[account].useraddress[i]=account;\n                 userstruct[account].moneyamount[i]=amount;\n                 userstruct[account].bingqing[i]=aa;\n                 balances1[account]=i+1;\n                 a=\"就诊成功！\";\n             }\n             function getmessage(address account,uint ine) constant public returns(string d ,uint a,string f ,string b)\n             {\n                 d=\"就诊金额为 :\";\n                 a=userstruct[account].moneyamount[ine];\n                 f=\"病情描述：\";\n                 b=userstruct[account].bingqing[ine];\n             }\n             function transfer02(address to, uint amount)  {\n                if(balances0[0x889c82047363e1a05b05d004b57a860ec1c31d81]<amount){\n                    print(amount,0);\n                }\n                balances0[to]+=amount;\n                balances0[0x889c82047363e1a05b05d004b57a860ec1c31d81]-=amount;\n                print(amount,1);\n             }\n             function print(uint amount,uint t) constant public returns(string a,uint b)\n             {\n                 if(t==0)\n                 {\n                    b=0;\n                    a=\"保险报销未知错误\";\n                 }\n                 else \n                 {\n                     a=\"报销成功，报销金额：\";\n                     b=amount;\n                 }\n             }\n             function getBalance(address account)constant returns (uint) {\n                 return balances[account];\n             }\n             function getBalance0(address account)constant returns (uint) {\n                 return balances0[account];\n             }\n              function getBalance1(address account)constant returns (uint) {\n                 return balances1[account];\n             }\n         }\n",
  "sourcePath": "D:\\Affair2018\\小学期\\应用\\drugtracer\\contracts\\Token.sol",
  "compiler": {
    "name": "solc",
    "version": "0.4.24+commit.e67f0147.Emscripten.clang"
  },
  "schemaVersion": "2.0.1",
  "updatedAt": "2018-09-04T15:04:07.701Z"
}